{
  "contractName": "Designer",
  "abi": [
    {
      "inputs": [],
      "stateMutability": "nonpayable",
      "type": "constructor"
    },
    {
      "anonymous": false,
      "inputs": [
        {
          "indexed": true,
          "internalType": "address",
          "name": "owner",
          "type": "address"
        },
        {
          "indexed": true,
          "internalType": "address",
          "name": "approved",
          "type": "address"
        },
        {
          "indexed": true,
          "internalType": "uint256",
          "name": "tokenId",
          "type": "uint256"
        }
      ],
      "name": "Approval",
      "type": "event"
    },
    {
      "anonymous": false,
      "inputs": [
        {
          "indexed": true,
          "internalType": "address",
          "name": "owner",
          "type": "address"
        },
        {
          "indexed": true,
          "internalType": "address",
          "name": "operator",
          "type": "address"
        },
        {
          "indexed": false,
          "internalType": "bool",
          "name": "approved",
          "type": "bool"
        }
      ],
      "name": "ApprovalForAll",
      "type": "event"
    },
    {
      "anonymous": false,
      "inputs": [
        {
          "indexed": false,
          "internalType": "address",
          "name": "addr",
          "type": "address"
        },
        {
          "indexed": false,
          "internalType": "enum Designer.LogStatus",
          "name": "",
          "type": "uint8"
        }
      ],
      "name": "LoggedInDesg",
      "type": "event"
    },
    {
      "anonymous": false,
      "inputs": [
        {
          "indexed": false,
          "internalType": "address",
          "name": "addr",
          "type": "address"
        },
        {
          "indexed": false,
          "internalType": "string",
          "name": "s",
          "type": "string"
        }
      ],
      "name": "RegistrationDesgSucc",
      "type": "event"
    },
    {
      "anonymous": false,
      "inputs": [
        {
          "indexed": true,
          "internalType": "address",
          "name": "from",
          "type": "address"
        },
        {
          "indexed": true,
          "internalType": "address",
          "name": "to",
          "type": "address"
        },
        {
          "indexed": true,
          "internalType": "uint256",
          "name": "tokenId",
          "type": "uint256"
        }
      ],
      "name": "Transfer",
      "type": "event"
    },
    {
      "inputs": [
        {
          "internalType": "address",
          "name": "to",
          "type": "address"
        },
        {
          "internalType": "uint256",
          "name": "tokenId",
          "type": "uint256"
        }
      ],
      "name": "approve",
      "outputs": [],
      "stateMutability": "nonpayable",
      "type": "function"
    },
    {
      "inputs": [
        {
          "internalType": "address",
          "name": "owner",
          "type": "address"
        }
      ],
      "name": "balanceOf",
      "outputs": [
        {
          "internalType": "uint256",
          "name": "",
          "type": "uint256"
        }
      ],
      "stateMutability": "view",
      "type": "function"
    },
    {
      "inputs": [
        {
          "internalType": "uint256",
          "name": "tokenId",
          "type": "uint256"
        }
      ],
      "name": "getApproved",
      "outputs": [
        {
          "internalType": "address",
          "name": "",
          "type": "address"
        }
      ],
      "stateMutability": "view",
      "type": "function"
    },
    {
      "inputs": [
        {
          "internalType": "address",
          "name": "owner",
          "type": "address"
        },
        {
          "internalType": "address",
          "name": "operator",
          "type": "address"
        }
      ],
      "name": "isApprovedForAll",
      "outputs": [
        {
          "internalType": "bool",
          "name": "",
          "type": "bool"
        }
      ],
      "stateMutability": "view",
      "type": "function"
    },
    {
      "inputs": [],
      "name": "name",
      "outputs": [
        {
          "internalType": "string",
          "name": "",
          "type": "string"
        }
      ],
      "stateMutability": "view",
      "type": "function"
    },
    {
      "inputs": [
        {
          "internalType": "uint256",
          "name": "tokenId",
          "type": "uint256"
        }
      ],
      "name": "ownerOf",
      "outputs": [
        {
          "internalType": "address",
          "name": "",
          "type": "address"
        }
      ],
      "stateMutability": "view",
      "type": "function"
    },
    {
      "inputs": [
        {
          "internalType": "address",
          "name": "from",
          "type": "address"
        },
        {
          "internalType": "address",
          "name": "to",
          "type": "address"
        },
        {
          "internalType": "uint256",
          "name": "tokenId",
          "type": "uint256"
        }
      ],
      "name": "safeTransferFrom",
      "outputs": [],
      "stateMutability": "nonpayable",
      "type": "function"
    },
    {
      "inputs": [
        {
          "internalType": "address",
          "name": "from",
          "type": "address"
        },
        {
          "internalType": "address",
          "name": "to",
          "type": "address"
        },
        {
          "internalType": "uint256",
          "name": "tokenId",
          "type": "uint256"
        },
        {
          "internalType": "bytes",
          "name": "_data",
          "type": "bytes"
        }
      ],
      "name": "safeTransferFrom",
      "outputs": [],
      "stateMutability": "nonpayable",
      "type": "function"
    },
    {
      "inputs": [
        {
          "internalType": "address",
          "name": "operator",
          "type": "address"
        },
        {
          "internalType": "bool",
          "name": "approved",
          "type": "bool"
        }
      ],
      "name": "setApprovalForAll",
      "outputs": [],
      "stateMutability": "nonpayable",
      "type": "function"
    },
    {
      "inputs": [
        {
          "internalType": "bytes4",
          "name": "interfaceId",
          "type": "bytes4"
        }
      ],
      "name": "supportsInterface",
      "outputs": [
        {
          "internalType": "bool",
          "name": "",
          "type": "bool"
        }
      ],
      "stateMutability": "view",
      "type": "function"
    },
    {
      "inputs": [],
      "name": "symbol",
      "outputs": [
        {
          "internalType": "string",
          "name": "",
          "type": "string"
        }
      ],
      "stateMutability": "view",
      "type": "function"
    },
    {
      "inputs": [
        {
          "internalType": "uint256",
          "name": "tokenId",
          "type": "uint256"
        }
      ],
      "name": "tokenURI",
      "outputs": [
        {
          "internalType": "string",
          "name": "",
          "type": "string"
        }
      ],
      "stateMutability": "view",
      "type": "function"
    },
    {
      "inputs": [
        {
          "internalType": "address",
          "name": "from",
          "type": "address"
        },
        {
          "internalType": "address",
          "name": "to",
          "type": "address"
        },
        {
          "internalType": "uint256",
          "name": "tokenId",
          "type": "uint256"
        }
      ],
      "name": "transferFrom",
      "outputs": [],
      "stateMutability": "nonpayable",
      "type": "function"
    },
    {
      "inputs": [
        {
          "internalType": "string",
          "name": "_name",
          "type": "string"
        },
        {
          "internalType": "bytes32",
          "name": "_imgHash",
          "type": "bytes32"
        }
      ],
      "name": "register",
      "outputs": [],
      "stateMutability": "nonpayable",
      "type": "function"
    },
    {
      "inputs": [
        {
          "internalType": "uint256",
          "name": "_id",
          "type": "uint256"
        }
      ],
      "name": "login",
      "outputs": [],
      "stateMutability": "nonpayable",
      "type": "function"
    },
    {
      "inputs": [
        {
          "internalType": "string",
          "name": "_name",
          "type": "string"
        }
      ],
      "name": "regProd",
      "outputs": [],
      "stateMutability": "nonpayable",
      "type": "function"
    }
  ],
  "bytecode": "0x60806040523480156200001157600080fd5b506040518060400160405280600781526020017f70726f64756374000000000000000000000000000000000000000000000000008152506040518060400160405280600781526020017f50524f4455435400000000000000000000000000000000000000000000000000815250816000908051906020019062000096929190620000b8565b508060019080519060200190620000af929190620000b8565b505050620001cd565b828054620000c69062000168565b90600052602060002090601f016020900481019282620000ea576000855562000136565b82601f106200010557805160ff191683800117855562000136565b8280016001018555821562000136579182015b828111156200013557825182559160200191906001019062000118565b5b50905062000145919062000149565b5090565b5b80821115620001645760008160009055506001016200014a565b5090565b600060028204905060018216806200018157607f821691505b602082108114156200019857620001976200019e565b5b50919050565b7f4e487b7100000000000000000000000000000000000000000000000000000000600052602260045260246000fd5b6130f480620001dd6000396000f3fe608060405234801561001057600080fd5b50600436106101005760003560e01c80636352211e11610097578063a22cb46511610066578063a22cb465146102a9578063b88d4fde146102c5578063c87b56dd146102e1578063e985e9c51461031157610100565b80636352211e1461020f578063656afdee1461023f57806370a082311461025b57806395d89b411461028b57610100565b8063095ea7b3116100d3578063095ea7b31461019f57806323b872dd146101bb5780633dbfd97c146101d757806342842e0e146101f357610100565b806301ffc9a71461010557806306fdde0314610135578063070196b614610153578063081812fc1461016f575b600080fd5b61011f600480360381019061011a9190611f2e565b610341565b60405161012c91906124af565b60405180910390f35b61013d610423565b60405161014a91906124ca565b60405180910390f35b61016d60048036038101906101689190611f80565b6104b5565b005b61018960048036038101906101849190612015565b61069e565b60405161019691906123f1565b60405180910390f35b6101b960048036038101906101b49190611ef2565b610723565b005b6101d560048036038101906101d09190611dec565b61083b565b005b6101f160048036038101906101ec9190612015565b61089b565b005b61020d60048036038101906102089190611dec565b610a2c565b005b61022960048036038101906102249190612015565b610a4c565b60405161023691906123f1565b60405180910390f35b61025960048036038101906102549190611fc1565b610afe565b005b61027560048036038101906102709190611d87565b610cc0565b604051610282919061272c565b60405180910390f35b610293610d78565b6040516102a091906124ca565b60405180910390f35b6102c360048036038101906102be9190611eb6565b610e0a565b005b6102df60048036038101906102da9190611e3b565b610f8b565b005b6102fb60048036038101906102f69190612015565b610fed565b60405161030891906124ca565b60405180910390f35b61032b60048036038101906103269190611db0565b611094565b60405161033891906124af565b60405180910390f35b60007f80ac58cd000000000000000000000000000000000000000000000000000000007bffffffffffffffffffffffffffffffffffffffffffffffffffffffff1916827bffffffffffffffffffffffffffffffffffffffffffffffffffffffff1916148061040c57507f5b5e139f000000000000000000000000000000000000000000000000000000007bffffffffffffffffffffffffffffffffffffffffffffffffffffffff1916827bffffffffffffffffffffffffffffffffffffffffffffffffffffffff1916145b8061041c575061041b82611128565b5b9050919050565b606060008054610432906129b1565b80601f016020809104026020016040519081016040528092919081815260200182805461045e906129b1565b80156104ab5780601f10610480576101008083540402835291602001916104ab565b820191906000526020600020905b81548152906001019060200180831161048e57829003601f168201915b5050505050905090565b806008816040516104c691906123b6565b908152602001604051809103902060009054906101000a900460ff1615610522576040517f08c379a0000000000000000000000000000000000000000000000000000000008152600401610519906124ec565b60405180910390fd5b600760003373ffffffffffffffffffffffffffffffffffffffff1673ffffffffffffffffffffffffffffffffffffffff16815260200190815260200160002060010160009054906101000a900473ffffffffffffffffffffffffffffffffffffffff1673ffffffffffffffffffffffffffffffffffffffff163373ffffffffffffffffffffffffffffffffffffffff16146105f2576040517f08c379a00000000000000000000000000000000000000000000000000000000081526004016105e9906126ec565b60405180910390fd5b60006040518060400160405280612711815260200184815250905080600760003373ffffffffffffffffffffffffffffffffffffffff1673ffffffffffffffffffffffffffffffffffffffff16815260200190815260200160002060050160006127118152602001908152602001600020600082015181600001556020820151816001019080519060200190610689929190611b96565b5090505061069933612711611192565b505050565b60006106a982611360565b6106e8576040517f08c379a00000000000000000000000000000000000000000000000000000000081526004016106df9061262c565b60405180910390fd5b6004600083815260200190815260200160002060009054906101000a900473ffffffffffffffffffffffffffffffffffffffff169050919050565b600061072e82610a4c565b90508073ffffffffffffffffffffffffffffffffffffffff168373ffffffffffffffffffffffffffffffffffffffff16141561079f576040517f08c379a0000000000000000000000000000000000000000000000000000000008152600401610796906126ac565b60405180910390fd5b8073ffffffffffffffffffffffffffffffffffffffff166107be6113cc565b73ffffffffffffffffffffffffffffffffffffffff1614806107ed57506107ec816107e76113cc565b611094565b5b61082c576040517f08c379a0000000000000000000000000000000000000000000000000000000008152600401610823906125ac565b60405180910390fd5b61083683836113d4565b505050565b61084c6108466113cc565b8261148d565b61088b576040517f08c379a0000000000000000000000000000000000000000000000000000000008152600401610882906126cc565b60405180910390fd5b61089683838361156b565b505050565b600760003373ffffffffffffffffffffffffffffffffffffffff1673ffffffffffffffffffffffffffffffffffffffff16815260200190815260200160002060010160009054906101000a900473ffffffffffffffffffffffffffffffffffffffff1673ffffffffffffffffffffffffffffffffffffffff163373ffffffffffffffffffffffffffffffffffffffff161461096b576040517f08c379a0000000000000000000000000000000000000000000000000000000008152600401610962906126ec565b60405180910390fd5b80600760003373ffffffffffffffffffffffffffffffffffffffff1673ffffffffffffffffffffffffffffffffffffffff16815260200190815260200160002060000154146109ef576040517f08c379a00000000000000000000000000000000000000000000000000000000081526004016109e69061270c565b60405180910390fd5b7f7555ac8ecff1d96fbe10c4d754d0432382e4d8ea58d73f504dc53d4c6b40123b336000604051610a21929190612458565b60405180910390a150565b610a4783838360405180602001604052806000815250610f8b565b505050565b6000806002600084815260200190815260200160002060009054906101000a900473ffffffffffffffffffffffffffffffffffffffff169050600073ffffffffffffffffffffffffffffffffffffffff168173ffffffffffffffffffffffffffffffffffffffff161415610af5576040517f08c379a0000000000000000000000000000000000000000000000000000000008152600401610aec906125ec565b60405180910390fd5b80915050919050565b33600760008273ffffffffffffffffffffffffffffffffffffffff1673ffffffffffffffffffffffffffffffffffffffff16815260200190815260200160002060010160009054906101000a900473ffffffffffffffffffffffffffffffffffffffff1673ffffffffffffffffffffffffffffffffffffffff168173ffffffffffffffffffffffffffffffffffffffff161415610bd0576040517f08c379a0000000000000000000000000000000000000000000000000000000008152600401610bc79061264c565b60405180910390fd5b6000600760003373ffffffffffffffffffffffffffffffffffffffff1673ffffffffffffffffffffffffffffffffffffffff16815260200190815260200160002090506103e98160000181905550338160010160006101000a81548173ffffffffffffffffffffffffffffffffffffffff021916908373ffffffffffffffffffffffffffffffffffffffff16021790555083816002019080519060200190610c79929190611b96565b508281600301819055507f7e530f54c80b8a8e1424e5b20131374ab649a95ac00c8ff29d999ca8a24f091633604051610cb29190612481565b60405180910390a150505050565b60008073ffffffffffffffffffffffffffffffffffffffff168273ffffffffffffffffffffffffffffffffffffffff161415610d31576040517f08c379a0000000000000000000000000000000000000000000000000000000008152600401610d28906125cc565b60405180910390fd5b600360008373ffffffffffffffffffffffffffffffffffffffff1673ffffffffffffffffffffffffffffffffffffffff168152602001908152602001600020549050919050565b606060018054610d87906129b1565b80601f0160208091040260200160405190810160405280929190818152602001828054610db3906129b1565b8015610e005780601f10610dd557610100808354040283529160200191610e00565b820191906000526020600020905b815481529060010190602001808311610de357829003601f168201915b5050505050905090565b610e126113cc565b73ffffffffffffffffffffffffffffffffffffffff168273ffffffffffffffffffffffffffffffffffffffff161415610e80576040517f08c379a0000000000000000000000000000000000000000000000000000000008152600401610e779061256c565b60405180910390fd5b8060056000610e8d6113cc565b73ffffffffffffffffffffffffffffffffffffffff1673ffffffffffffffffffffffffffffffffffffffff16815260200190815260200160002060008473ffffffffffffffffffffffffffffffffffffffff1673ffffffffffffffffffffffffffffffffffffffff16815260200190815260200160002060006101000a81548160ff0219169083151502179055508173ffffffffffffffffffffffffffffffffffffffff16610f3a6113cc565b73ffffffffffffffffffffffffffffffffffffffff167f17307eab39ab6107e8899845ad3d59bd9653f200f220920489ca2b5937696c3183604051610f7f91906124af565b60405180910390a35050565b610f9c610f966113cc565b8361148d565b610fdb576040517f08c379a0000000000000000000000000000000000000000000000000000000008152600401610fd2906126cc565b60405180910390fd5b610fe7848484846117c7565b50505050565b6060610ff882611360565b611037576040517f08c379a000000000000000000000000000000000000000000000000000000000815260040161102e9061268c565b60405180910390fd5b6000611041611823565b90506000815111611061576040518060200160405280600081525061108c565b8061106b8461183a565b60405160200161107c9291906123cd565b6040516020818303038152906040525b915050919050565b6000600560008473ffffffffffffffffffffffffffffffffffffffff1673ffffffffffffffffffffffffffffffffffffffff16815260200190815260200160002060008373ffffffffffffffffffffffffffffffffffffffff1673ffffffffffffffffffffffffffffffffffffffff16815260200190815260200160002060009054906101000a900460ff16905092915050565b60007f01ffc9a7000000000000000000000000000000000000000000000000000000007bffffffffffffffffffffffffffffffffffffffffffffffffffffffff1916827bffffffffffffffffffffffffffffffffffffffffffffffffffffffff1916149050919050565b600073ffffffffffffffffffffffffffffffffffffffff168273ffffffffffffffffffffffffffffffffffffffff161415611202576040517f08c379a00000000000000000000000000000000000000000000000000000000081526004016111f99061260c565b60405180910390fd5b61120b81611360565b1561124b576040517f08c379a00000000000000000000000000000000000000000000000000000000081526004016112429061252c565b60405180910390fd5b611257600083836119e7565b6001600360008473ffffffffffffffffffffffffffffffffffffffff1673ffffffffffffffffffffffffffffffffffffffff16815260200190815260200160002060008282546112a79190612811565b92505081905550816002600083815260200190815260200160002060006101000a81548173ffffffffffffffffffffffffffffffffffffffff021916908373ffffffffffffffffffffffffffffffffffffffff160217905550808273ffffffffffffffffffffffffffffffffffffffff16600073ffffffffffffffffffffffffffffffffffffffff167fddf252ad1be2c89b69c2b068fc378daa952ba7f163c4a11628f55a4df523b3ef60405160405180910390a45050565b60008073ffffffffffffffffffffffffffffffffffffffff166002600084815260200190815260200160002060009054906101000a900473ffffffffffffffffffffffffffffffffffffffff1673ffffffffffffffffffffffffffffffffffffffff1614159050919050565b600033905090565b816004600083815260200190815260200160002060006101000a81548173ffffffffffffffffffffffffffffffffffffffff021916908373ffffffffffffffffffffffffffffffffffffffff160217905550808273ffffffffffffffffffffffffffffffffffffffff1661144783610a4c565b73ffffffffffffffffffffffffffffffffffffffff167f8c5be1e5ebec7d5bd14f71427d1e84f3dd0314c0f7b2291e5b200ac8c7c3b92560405160405180910390a45050565b600061149882611360565b6114d7576040517f08c379a00000000000000000000000000000000000000000000000000000000081526004016114ce9061258c565b60405180910390fd5b60006114e283610a4c565b90508073ffffffffffffffffffffffffffffffffffffffff168473ffffffffffffffffffffffffffffffffffffffff16148061155157508373ffffffffffffffffffffffffffffffffffffffff166115398461069e565b73ffffffffffffffffffffffffffffffffffffffff16145b8061156257506115618185611094565b5b91505092915050565b8273ffffffffffffffffffffffffffffffffffffffff1661158b82610a4c565b73ffffffffffffffffffffffffffffffffffffffff16146115e1576040517f08c379a00000000000000000000000000000000000000000000000000000000081526004016115d89061266c565b60405180910390fd5b600073ffffffffffffffffffffffffffffffffffffffff168273ffffffffffffffffffffffffffffffffffffffff161415611651576040517f08c379a00000000000000000000000000000000000000000000000000000000081526004016116489061254c565b60405180910390fd5b61165c8383836119e7565b6116676000826113d4565b6001600360008573ffffffffffffffffffffffffffffffffffffffff1673ffffffffffffffffffffffffffffffffffffffff16815260200190815260200160002060008282546116b79190612898565b925050819055506001600360008473ffffffffffffffffffffffffffffffffffffffff1673ffffffffffffffffffffffffffffffffffffffff168152602001908152602001600020600082825461170e9190612811565b92505081905550816002600083815260200190815260200160002060006101000a81548173ffffffffffffffffffffffffffffffffffffffff021916908373ffffffffffffffffffffffffffffffffffffffff160217905550808273ffffffffffffffffffffffffffffffffffffffff168473ffffffffffffffffffffffffffffffffffffffff167fddf252ad1be2c89b69c2b068fc378daa952ba7f163c4a11628f55a4df523b3ef60405160405180910390a4505050565b6117d284848461156b565b6117de848484846119ec565b61181d576040517f08c379a00000000000000000000000000000000000000000000000000000000081526004016118149061250c565b60405180910390fd5b50505050565b606060405180602001604052806000815250905090565b60606000821415611882576040518060400160405280600181526020017f300000000000000000000000000000000000000000000000000000000000000081525090506119e2565b600082905060005b600082146118b457808061189d90612a14565b915050600a826118ad9190612867565b915061188a565b60008167ffffffffffffffff8111156118f6577f4e487b7100000000000000000000000000000000000000000000000000000000600052604160045260246000fd5b6040519080825280601f01601f1916602001820160405280156119285781602001600182028036833780820191505090505b5090505b600085146119db576001826119419190612898565b9150600a856119509190612a5d565b603061195c9190612811565b60f81b818381518110611998577f4e487b7100000000000000000000000000000000000000000000000000000000600052603260045260246000fd5b60200101907effffffffffffffffffffffffffffffffffffffffffffffffffffffffffffff1916908160001a905350600a856119d49190612867565b945061192c565b8093505050505b919050565b505050565b6000611a0d8473ffffffffffffffffffffffffffffffffffffffff16611b83565b15611b76578373ffffffffffffffffffffffffffffffffffffffff1663150b7a02611a366113cc565b8786866040518563ffffffff1660e01b8152600401611a58949392919061240c565b602060405180830381600087803b158015611a7257600080fd5b505af1925050508015611aa357506040513d601f19601f82011682018060405250810190611aa09190611f57565b60015b611b26573d8060008114611ad3576040519150601f19603f3d011682016040523d82523d6000602084013e611ad8565b606091505b50600081511415611b1e576040517f08c379a0000000000000000000000000000000000000000000000000000000008152600401611b159061250c565b60405180910390fd5b805181602001fd5b63150b7a0260e01b7bffffffffffffffffffffffffffffffffffffffffffffffffffffffff1916817bffffffffffffffffffffffffffffffffffffffffffffffffffffffff191614915050611b7b565b600190505b949350505050565b600080823b905060008111915050919050565b828054611ba2906129b1565b90600052602060002090601f016020900481019282611bc45760008555611c0b565b82601f10611bdd57805160ff1916838001178555611c0b565b82800160010185558215611c0b579182015b82811115611c0a578251825591602001919060010190611bef565b5b509050611c189190611c1c565b5090565b5b80821115611c35576000816000905550600101611c1d565b5090565b6000611c4c611c478461276c565b612747565b905082815260208101848484011115611c6457600080fd5b611c6f84828561296f565b509392505050565b6000611c8a611c858461279d565b612747565b905082815260208101848484011115611ca257600080fd5b611cad84828561296f565b509392505050565b600081359050611cc48161304b565b92915050565b600081359050611cd981613062565b92915050565b600081359050611cee81613079565b92915050565b600081359050611d0381613090565b92915050565b600081519050611d1881613090565b92915050565b600082601f830112611d2f57600080fd5b8135611d3f848260208601611c39565b91505092915050565b600082601f830112611d5957600080fd5b8135611d69848260208601611c77565b91505092915050565b600081359050611d81816130a7565b92915050565b600060208284031215611d9957600080fd5b6000611da784828501611cb5565b91505092915050565b60008060408385031215611dc357600080fd5b6000611dd185828601611cb5565b9250506020611de285828601611cb5565b9150509250929050565b600080600060608486031215611e0157600080fd5b6000611e0f86828701611cb5565b9350506020611e2086828701611cb5565b9250506040611e3186828701611d72565b9150509250925092565b60008060008060808587031215611e5157600080fd5b6000611e5f87828801611cb5565b9450506020611e7087828801611cb5565b9350506040611e8187828801611d72565b925050606085013567ffffffffffffffff811115611e9e57600080fd5b611eaa87828801611d1e565b91505092959194509250565b60008060408385031215611ec957600080fd5b6000611ed785828601611cb5565b9250506020611ee885828601611cca565b9150509250929050565b60008060408385031215611f0557600080fd5b6000611f1385828601611cb5565b9250506020611f2485828601611d72565b9150509250929050565b600060208284031215611f4057600080fd5b6000611f4e84828501611cf4565b91505092915050565b600060208284031215611f6957600080fd5b6000611f7784828501611d09565b91505092915050565b600060208284031215611f9257600080fd5b600082013567ffffffffffffffff811115611fac57600080fd5b611fb884828501611d48565b91505092915050565b60008060408385031215611fd457600080fd5b600083013567ffffffffffffffff811115611fee57600080fd5b611ffa85828601611d48565b925050602061200b85828601611cdf565b9150509250929050565b60006020828403121561202757600080fd5b600061203584828501611d72565b91505092915050565b612047816128cc565b82525050565b612056816128de565b82525050565b6000612067826127ce565b61207181856127e4565b935061208181856020860161297e565b61208a81612b79565b840191505092915050565b61209e8161295d565b82525050565b60006120af826127d9565b6120b981856127f5565b93506120c981856020860161297e565b6120d281612b79565b840191505092915050565b60006120e8826127d9565b6120f28185612806565b935061210281856020860161297e565b80840191505092915050565b600061211b6012836127f5565b915061212682612b8a565b602082019050919050565b600061213e6032836127f5565b915061214982612bb3565b604082019050919050565b6000612161601c836127f5565b915061216c82612c02565b602082019050919050565b60006121846024836127f5565b915061218f82612c2b565b604082019050919050565b60006121a76019836127f5565b91506121b282612c7a565b602082019050919050565b60006121ca602c836127f5565b91506121d582612ca3565b604082019050919050565b60006121ed6038836127f5565b91506121f882612cf2565b604082019050919050565b6000612210602a836127f5565b915061221b82612d41565b604082019050919050565b60006122336029836127f5565b915061223e82612d90565b604082019050919050565b60006122566020836127f5565b915061226182612ddf565b602082019050919050565b6000612279602c836127f5565b915061228482612e08565b604082019050919050565b600061229c6016836127f5565b91506122a782612e57565b602082019050919050565b60006122bf6029836127f5565b91506122ca82612e80565b604082019050919050565b60006122e2602f836127f5565b91506122ed82612ecf565b604082019050919050565b60006123056021836127f5565b915061231082612f1e565b604082019050919050565b6000612328600a836127f5565b915061233382612f6d565b602082019050919050565b600061234b6031836127f5565b915061235682612f96565b604082019050919050565b600061236e6011836127f5565b915061237982612fe5565b602082019050919050565b6000612391600c836127f5565b915061239c8261300e565b602082019050919050565b6123b081612953565b82525050565b60006123c282846120dd565b915081905092915050565b60006123d982856120dd565b91506123e582846120dd565b91508190509392505050565b6000602082019050612406600083018461203e565b92915050565b6000608082019050612421600083018761203e565b61242e602083018661203e565b61243b60408301856123a7565b818103606083015261244d818461205c565b905095945050505050565b600060408201905061246d600083018561203e565b61247a6020830184612095565b9392505050565b6000604082019050612496600083018461203e565b81810360208301526124a78161231b565b905092915050565b60006020820190506124c4600083018461204d565b92915050565b600060208201905081810360008301526124e481846120a4565b905092915050565b600060208201905081810360008301526125058161210e565b9050919050565b6000602082019050818103600083015261252581612131565b9050919050565b6000602082019050818103600083015261254581612154565b9050919050565b6000602082019050818103600083015261256581612177565b9050919050565b600060208201905081810360008301526125858161219a565b9050919050565b600060208201905081810360008301526125a5816121bd565b9050919050565b600060208201905081810360008301526125c5816121e0565b9050919050565b600060208201905081810360008301526125e581612203565b9050919050565b6000602082019050818103600083015261260581612226565b9050919050565b6000602082019050818103600083015261262581612249565b9050919050565b600060208201905081810360008301526126458161226c565b9050919050565b600060208201905081810360008301526126658161228f565b9050919050565b60006020820190508181036000830152612685816122b2565b9050919050565b600060208201905081810360008301526126a5816122d5565b9050919050565b600060208201905081810360008301526126c5816122f8565b9050919050565b600060208201905081810360008301526126e58161233e565b9050919050565b6000602082019050818103600083015261270581612361565b9050919050565b6000602082019050818103600083015261272581612384565b9050919050565b600060208201905061274160008301846123a7565b92915050565b6000612751612762565b905061275d82826129e3565b919050565b6000604051905090565b600067ffffffffffffffff82111561278757612786612b4a565b5b61279082612b79565b9050602081019050919050565b600067ffffffffffffffff8211156127b8576127b7612b4a565b5b6127c182612b79565b9050602081019050919050565b600081519050919050565b600081519050919050565b600082825260208201905092915050565b600082825260208201905092915050565b600081905092915050565b600061281c82612953565b915061282783612953565b9250827fffffffffffffffffffffffffffffffffffffffffffffffffffffffffffffffff0382111561285c5761285b612a8e565b5b828201905092915050565b600061287282612953565b915061287d83612953565b92508261288d5761288c612abd565b5b828204905092915050565b60006128a382612953565b91506128ae83612953565b9250828210156128c1576128c0612a8e565b5b828203905092915050565b60006128d782612933565b9050919050565b60008115159050919050565b6000819050919050565b60007fffffffff0000000000000000000000000000000000000000000000000000000082169050919050565b600081905061292e82613037565b919050565b600073ffffffffffffffffffffffffffffffffffffffff82169050919050565b6000819050919050565b600061296882612920565b9050919050565b82818337600083830152505050565b60005b8381101561299c578082015181840152602081019050612981565b838111156129ab576000848401525b50505050565b600060028204905060018216806129c957607f821691505b602082108114156129dd576129dc612b1b565b5b50919050565b6129ec82612b79565b810181811067ffffffffffffffff82111715612a0b57612a0a612b4a565b5b80604052505050565b6000612a1f82612953565b91507fffffffffffffffffffffffffffffffffffffffffffffffffffffffffffffffff821415612a5257612a51612a8e565b5b600182019050919050565b6000612a6882612953565b9150612a7383612953565b925082612a8357612a82612abd565b5b828206905092915050565b7f4e487b7100000000000000000000000000000000000000000000000000000000600052601160045260246000fd5b7f4e487b7100000000000000000000000000000000000000000000000000000000600052601260045260246000fd5b7f4e487b7100000000000000000000000000000000000000000000000000000000600052602160045260246000fd5b7f4e487b7100000000000000000000000000000000000000000000000000000000600052602260045260246000fd5b7f4e487b7100000000000000000000000000000000000000000000000000000000600052604160045260246000fd5b6000601f19601f8301169050919050565b7f4e616d6520616c72656164792074616b656e0000000000000000000000000000600082015250565b7f4552433732313a207472616e7366657220746f206e6f6e20455243373231526560008201527f63656976657220696d706c656d656e7465720000000000000000000000000000602082015250565b7f4552433732313a20746f6b656e20616c7265616479206d696e74656400000000600082015250565b7f4552433732313a207472616e7366657220746f20746865207a65726f2061646460008201527f7265737300000000000000000000000000000000000000000000000000000000602082015250565b7f4552433732313a20617070726f766520746f2063616c6c657200000000000000600082015250565b7f4552433732313a206f70657261746f7220717565727920666f72206e6f6e657860008201527f697374656e7420746f6b656e0000000000000000000000000000000000000000602082015250565b7f4552433732313a20617070726f76652063616c6c6572206973206e6f74206f7760008201527f6e6572206e6f7220617070726f76656420666f7220616c6c0000000000000000602082015250565b7f4552433732313a2062616c616e636520717565727920666f7220746865207a6560008201527f726f206164647265737300000000000000000000000000000000000000000000602082015250565b7f4552433732313a206f776e657220717565727920666f72206e6f6e657869737460008201527f656e7420746f6b656e0000000000000000000000000000000000000000000000602082015250565b7f4552433732313a206d696e7420746f20746865207a65726f2061646472657373600082015250565b7f4552433732313a20617070726f76656420717565727920666f72206e6f6e657860008201527f697374656e7420746f6b656e0000000000000000000000000000000000000000602082015250565b7f4164647265737320616c72656164792065786973747300000000000000000000600082015250565b7f4552433732313a207472616e73666572206f6620746f6b656e2074686174206960008201527f73206e6f74206f776e0000000000000000000000000000000000000000000000602082015250565b7f4552433732314d657461646174613a2055524920717565727920666f72206e6f60008201527f6e6578697374656e7420746f6b656e0000000000000000000000000000000000602082015250565b7f4552433732313a20617070726f76616c20746f2063757272656e74206f776e6560008201527f7200000000000000000000000000000000000000000000000000000000000000602082015250565b7f5265676973746572656400000000000000000000000000000000000000000000600082015250565b7f4552433732313a207472616e736665722063616c6c6572206973206e6f74206f60008201527f776e6572206e6f7220617070726f766564000000000000000000000000000000602082015250565b7f41646472657373206e6f7420666f756e64000000000000000000000000000000600082015250565b7f496e636f72726563742049640000000000000000000000000000000000000000600082015250565b6002811061304857613047612aec565b5b50565b613054816128cc565b811461305f57600080fd5b50565b61306b816128de565b811461307657600080fd5b50565b613082816128ea565b811461308d57600080fd5b50565b613099816128f4565b81146130a457600080fd5b50565b6130b081612953565b81146130bb57600080fd5b5056fea2646970667358221220f63316d404819310ebf479a1f27e890f633afade29a65d3a9870981798a97be764736f6c63430008040033",
  "immutableReferences": {},
  "source": "// SPDX-License-Identifier: MIT\npragma solidity ^0.8;\nimport \"@openzeppelin/contracts/token/ERC721/ERC721.sol\";\n\ncontract Designer is ERC721 {\n    \n    struct product{\n        uint id;\n        string name;\n    }\n    \n    struct designer{\n        uint id;\n        address addr;\n        string name;\n        bytes32 imgHash;\n        mapping(uint => product) LaunchedProd;\n        mapping(uint => product) SavedProd;\n    }\n    \n    event RegistrationDesgSucc(address addr , string s);\n    \n    enum LogStatus {SUCCESS , FAIL}\n    LogStatus status;\n    \n    event LoggedInDesg(address addr , LogStatus);\n    \n    mapping(address => designer) registeredDesg;\n    \n    mapping(string => bool) nameList;\n    \n    modifier addrAlreadyUsed(address _sender){\n        require(_sender != registeredDesg[_sender].addr,\"Address already exists\");\n        _;\n    }\n    \n    modifier nameExists(string memory _name){\n        require(!nameList[_name] , \"Name already taken\");\n        _;\n    }\n    \n    constructor() ERC721(\"product\",\"PRODUCT\") public{\n        //do something...\n    }\n    \n    function register(string memory _name , bytes32 _imgHash) external addrAlreadyUsed(msg.sender) {\n        designer storage newDesg = registeredDesg[msg.sender];\n        newDesg.id = 1001;\n        newDesg.addr = msg.sender;\n        newDesg.name = _name;\n        newDesg.imgHash = _imgHash;\n        emit RegistrationDesgSucc(msg.sender , 'Registered');\n    }\n    \n    function login(uint _id) external {\n        require(msg.sender == registeredDesg[msg.sender].addr , \"Address not found\");\n        require(registeredDesg[msg.sender].id == _id , \"Incorrect Id\");\n        emit LoggedInDesg(msg.sender,LogStatus.SUCCESS);\n    }\n    \n    function regProd(string memory _name) external nameExists(_name){\n        require(msg.sender == registeredDesg[msg.sender].addr , \"Address not found\");\n        product memory p = product({id:10001,name:_name});\n        registeredDesg[msg.sender].SavedProd[10001] = p;\n        _mint(msg.sender ,10001);\n    }\n}\n",
  "sourcePath": "C:/Users/shreya/Documents/ds/contracts/SimpleStorage.sol",
  "compiler": {
    "name": "solc",
    "version": "0.8.4+commit.c7e474f2.Emscripten.clang"
  },
  "schemaVersion": "3.3.4",
  "updatedAt": "2021-04-24T18:02:22.835Z",
  "devdoc": {
    "kind": "dev",
    "methods": {
      "approve(address,uint256)": {
        "details": "See {IERC721-approve}."
      },
      "balanceOf(address)": {
        "details": "See {IERC721-balanceOf}."
      },
      "getApproved(uint256)": {
        "details": "See {IERC721-getApproved}."
      },
      "isApprovedForAll(address,address)": {
        "details": "See {IERC721-isApprovedForAll}."
      },
      "name()": {
        "details": "See {IERC721Metadata-name}."
      },
      "ownerOf(uint256)": {
        "details": "See {IERC721-ownerOf}."
      },
      "safeTransferFrom(address,address,uint256)": {
        "details": "See {IERC721-safeTransferFrom}."
      },
      "safeTransferFrom(address,address,uint256,bytes)": {
        "details": "See {IERC721-safeTransferFrom}."
      },
      "setApprovalForAll(address,bool)": {
        "details": "See {IERC721-setApprovalForAll}."
      },
      "supportsInterface(bytes4)": {
        "details": "See {IERC165-supportsInterface}."
      },
      "symbol()": {
        "details": "See {IERC721Metadata-symbol}."
      },
      "tokenURI(uint256)": {
        "details": "See {IERC721Metadata-tokenURI}."
      },
      "transferFrom(address,address,uint256)": {
        "details": "See {IERC721-transferFrom}."
      }
    },
    "version": 1
  },
  "userdoc": {
    "kind": "user",
    "methods": {},
    "version": 1
  }
}