{
  "contractName": "Product",
  "abi": [
    {
      "inputs": [],
      "stateMutability": "nonpayable",
      "type": "constructor"
    },
    {
      "anonymous": false,
      "inputs": [
        {
          "indexed": true,
          "internalType": "address",
          "name": "owner",
          "type": "address"
        },
        {
          "indexed": true,
          "internalType": "address",
          "name": "approved",
          "type": "address"
        },
        {
          "indexed": true,
          "internalType": "uint256",
          "name": "tokenId",
          "type": "uint256"
        }
      ],
      "name": "Approval",
      "type": "event"
    },
    {
      "anonymous": false,
      "inputs": [
        {
          "indexed": true,
          "internalType": "address",
          "name": "owner",
          "type": "address"
        },
        {
          "indexed": true,
          "internalType": "address",
          "name": "operator",
          "type": "address"
        },
        {
          "indexed": false,
          "internalType": "bool",
          "name": "approved",
          "type": "bool"
        }
      ],
      "name": "ApprovalForAll",
      "type": "event"
    },
    {
      "anonymous": false,
      "inputs": [
        {
          "indexed": false,
          "internalType": "address payable",
          "name": "",
          "type": "address"
        },
        {
          "indexed": false,
          "internalType": "string",
          "name": "s",
          "type": "string"
        }
      ],
      "name": "Registered",
      "type": "event"
    },
    {
      "anonymous": false,
      "inputs": [
        {
          "indexed": true,
          "internalType": "address",
          "name": "from",
          "type": "address"
        },
        {
          "indexed": true,
          "internalType": "address",
          "name": "to",
          "type": "address"
        },
        {
          "indexed": true,
          "internalType": "uint256",
          "name": "tokenId",
          "type": "uint256"
        }
      ],
      "name": "Transfer",
      "type": "event"
    },
    {
      "inputs": [
        {
          "internalType": "address",
          "name": "",
          "type": "address"
        }
      ],
      "name": "User_Record",
      "outputs": [
        {
          "internalType": "address payable",
          "name": "user_addr",
          "type": "address"
        },
        {
          "internalType": "bool",
          "name": "isAuth",
          "type": "bool"
        },
        {
          "internalType": "string",
          "name": "first_name",
          "type": "string"
        },
        {
          "internalType": "string",
          "name": "user_type",
          "type": "string"
        },
        {
          "internalType": "uint256",
          "name": "lastCheckinTime",
          "type": "uint256"
        },
        {
          "internalType": "string",
          "name": "profile",
          "type": "string"
        }
      ],
      "stateMutability": "view",
      "type": "function",
      "constant": true
    },
    {
      "inputs": [
        {
          "internalType": "address",
          "name": "to",
          "type": "address"
        },
        {
          "internalType": "uint256",
          "name": "tokenId",
          "type": "uint256"
        }
      ],
      "name": "approve",
      "outputs": [],
      "stateMutability": "nonpayable",
      "type": "function"
    },
    {
      "inputs": [
        {
          "internalType": "address",
          "name": "owner",
          "type": "address"
        }
      ],
      "name": "balanceOf",
      "outputs": [
        {
          "internalType": "uint256",
          "name": "",
          "type": "uint256"
        }
      ],
      "stateMutability": "view",
      "type": "function",
      "constant": true
    },
    {
      "inputs": [
        {
          "internalType": "uint256",
          "name": "tokenId",
          "type": "uint256"
        }
      ],
      "name": "getApproved",
      "outputs": [
        {
          "internalType": "address",
          "name": "",
          "type": "address"
        }
      ],
      "stateMutability": "view",
      "type": "function",
      "constant": true
    },
    {
      "inputs": [],
      "name": "getOwner",
      "outputs": [
        {
          "internalType": "address",
          "name": "",
          "type": "address"
        }
      ],
      "stateMutability": "view",
      "type": "function",
      "constant": true
    },
    {
      "inputs": [
        {
          "internalType": "address",
          "name": "owner",
          "type": "address"
        },
        {
          "internalType": "address",
          "name": "operator",
          "type": "address"
        }
      ],
      "name": "isApprovedForAll",
      "outputs": [
        {
          "internalType": "bool",
          "name": "",
          "type": "bool"
        }
      ],
      "stateMutability": "view",
      "type": "function",
      "constant": true
    },
    {
      "inputs": [],
      "name": "name",
      "outputs": [
        {
          "internalType": "string",
          "name": "",
          "type": "string"
        }
      ],
      "stateMutability": "view",
      "type": "function",
      "constant": true
    },
    {
      "inputs": [
        {
          "internalType": "uint256",
          "name": "tokenId",
          "type": "uint256"
        }
      ],
      "name": "ownerOf",
      "outputs": [
        {
          "internalType": "address",
          "name": "",
          "type": "address"
        }
      ],
      "stateMutability": "view",
      "type": "function",
      "constant": true
    },
    {
      "inputs": [
        {
          "internalType": "address",
          "name": "",
          "type": "address"
        },
        {
          "internalType": "uint256",
          "name": "",
          "type": "uint256"
        }
      ],
      "name": "productOwner",
      "outputs": [
        {
          "internalType": "uint256",
          "name": "key",
          "type": "uint256"
        },
        {
          "internalType": "string",
          "name": "name",
          "type": "string"
        },
        {
          "internalType": "string",
          "name": "designer",
          "type": "string"
        },
        {
          "internalType": "uint256",
          "name": "registeredOn",
          "type": "uint256"
        },
        {
          "internalType": "bool",
          "name": "isVerified",
          "type": "bool"
        }
      ],
      "stateMutability": "view",
      "type": "function",
      "constant": true
    },
    {
      "inputs": [
        {
          "internalType": "address payable",
          "name": "sender",
          "type": "address"
        },
        {
          "internalType": "string",
          "name": "f_name",
          "type": "string"
        },
        {
          "internalType": "string",
          "name": "u_type",
          "type": "string"
        },
        {
          "internalType": "string",
          "name": "profile",
          "type": "string"
        }
      ],
      "name": "register",
      "outputs": [],
      "stateMutability": "nonpayable",
      "type": "function"
    },
    {
      "inputs": [
        {
          "internalType": "address",
          "name": "from",
          "type": "address"
        },
        {
          "internalType": "address",
          "name": "to",
          "type": "address"
        },
        {
          "internalType": "uint256",
          "name": "tokenId",
          "type": "uint256"
        }
      ],
      "name": "safeTransferFrom",
      "outputs": [],
      "stateMutability": "nonpayable",
      "type": "function"
    },
    {
      "inputs": [
        {
          "internalType": "address",
          "name": "from",
          "type": "address"
        },
        {
          "internalType": "address",
          "name": "to",
          "type": "address"
        },
        {
          "internalType": "uint256",
          "name": "tokenId",
          "type": "uint256"
        },
        {
          "internalType": "bytes",
          "name": "_data",
          "type": "bytes"
        }
      ],
      "name": "safeTransferFrom",
      "outputs": [],
      "stateMutability": "nonpayable",
      "type": "function"
    },
    {
      "inputs": [
        {
          "internalType": "address",
          "name": "operator",
          "type": "address"
        },
        {
          "internalType": "bool",
          "name": "approved",
          "type": "bool"
        }
      ],
      "name": "setApprovalForAll",
      "outputs": [],
      "stateMutability": "nonpayable",
      "type": "function"
    },
    {
      "inputs": [
        {
          "internalType": "address payable",
          "name": "sender",
          "type": "address"
        }
      ],
      "name": "signin",
      "outputs": [
        {
          "internalType": "bool",
          "name": "",
          "type": "bool"
        }
      ],
      "stateMutability": "nonpayable",
      "type": "function"
    },
    {
      "inputs": [
        {
          "internalType": "bytes4",
          "name": "interfaceId",
          "type": "bytes4"
        }
      ],
      "name": "supportsInterface",
      "outputs": [
        {
          "internalType": "bool",
          "name": "",
          "type": "bool"
        }
      ],
      "stateMutability": "view",
      "type": "function",
      "constant": true
    },
    {
      "inputs": [],
      "name": "symbol",
      "outputs": [
        {
          "internalType": "string",
          "name": "",
          "type": "string"
        }
      ],
      "stateMutability": "view",
      "type": "function",
      "constant": true
    },
    {
      "inputs": [
        {
          "internalType": "uint256",
          "name": "tokenId",
          "type": "uint256"
        }
      ],
      "name": "tokenURI",
      "outputs": [
        {
          "internalType": "string",
          "name": "",
          "type": "string"
        }
      ],
      "stateMutability": "view",
      "type": "function",
      "constant": true
    },
    {
      "inputs": [
        {
          "internalType": "address",
          "name": "from",
          "type": "address"
        },
        {
          "internalType": "address",
          "name": "to",
          "type": "address"
        },
        {
          "internalType": "uint256",
          "name": "tokenId",
          "type": "uint256"
        }
      ],
      "name": "transferFrom",
      "outputs": [],
      "stateMutability": "nonpayable",
      "type": "function"
    },
    {
      "inputs": [
        {
          "internalType": "string",
          "name": "name",
          "type": "string"
        },
        {
          "internalType": "string",
          "name": "desg",
          "type": "string"
        },
        {
          "internalType": "string[]",
          "name": "imgArr",
          "type": "string[]"
        },
        {
          "internalType": "address payable",
          "name": "owner",
          "type": "address"
        }
      ],
      "name": "mintItem",
      "outputs": [],
      "stateMutability": "nonpayable",
      "type": "function"
    },
    {
      "inputs": [
        {
          "internalType": "address payable",
          "name": "newOnwer",
          "type": "address"
        },
        {
          "internalType": "address payable",
          "name": "currentOwner",
          "type": "address"
        },
        {
          "internalType": "uint256",
          "name": "id",
          "type": "uint256"
        }
      ],
      "name": "transferOwnerShip",
      "outputs": [],
      "stateMutability": "nonpayable",
      "type": "function"
    },
    {
      "inputs": [
        {
          "internalType": "uint256",
          "name": "id",
          "type": "uint256"
        }
      ],
      "name": "deleteToken",
      "outputs": [],
      "stateMutability": "nonpayable",
      "type": "function"
    },
    {
      "inputs": [
        {
          "internalType": "uint256",
          "name": "id",
          "type": "uint256"
        }
      ],
      "name": "verifyProduct",
      "outputs": [],
      "stateMutability": "nonpayable",
      "type": "function"
    }
  ],
  "bytecode": "0x60806040526103e86008553480156200001757600080fd5b506040518060400160405280600481526020017f4974656d000000000000000000000000000000000000000000000000000000008152506040518060400160405280600481526020017f4954454d0000000000000000000000000000000000000000000000000000000081525081600090805190602001906200009c929190620000ff565b508060019080519060200190620000b5929190620000ff565b50505033600660006101000a81548173ffffffffffffffffffffffffffffffffffffffff021916908373ffffffffffffffffffffffffffffffffffffffff16021790555062000214565b8280546200010d90620001af565b90600052602060002090601f0160209004810192826200013157600085556200017d565b82601f106200014c57805160ff19168380011785556200017d565b828001600101855582156200017d579182015b828111156200017c5782518255916020019190600101906200015f565b5b5090506200018c919062000190565b5090565b5b80821115620001ab57600081600090555060010162000191565b5090565b60006002820490506001821680620001c857607f821691505b60208210811415620001df57620001de620001e5565b5b50919050565b7f4e487b7100000000000000000000000000000000000000000000000000000000600052602260045260246000fd5b61428780620002246000396000f3fe608060405234801561001057600080fd5b50600436106101425760003560e01c8063893d20e8116100b8578063bcae34f81161007c578063bcae34f81461035d578063c8062dc514610379578063c87b56dd146103a9578063cc5a115c146103d9578063e985e9c51461040d578063f291350d1461043d57610142565b8063893d20e8146102cd57806395d89b41146102eb578063a22cb46514610309578063b390890914610325578063b88d4fde1461034157610142565b806323b872dd1161010a57806323b872dd146101fd57806342842e0e14610219578063524e8462146102355780636297c16c146102515780636352211e1461026d57806370a082311461029d57610142565b806301ffc9a714610147578063063d93d81461017757806306fdde0314610193578063081812fc146101b1578063095ea7b3146101e1575b600080fd5b610161600480360381019061015c9190612f04565b610472565b60405161016e919061353a565b60405180910390f35b610191600480360381019061018c9190612cdb565b610554565b005b61019b610909565b6040516101a89190613555565b60405180910390f35b6101cb60048036038101906101c69190613001565b61099b565b6040516101d8919061342f565b60405180910390f35b6101fb60048036038101906101f69190612ec8565b610a20565b005b61021760048036038101906102129190612dc2565b610b38565b005b610233600480360381019061022e9190612dc2565b610b98565b005b61024f600480360381019061024a9190613001565b610bb8565b005b61026b60048036038101906102669190613001565b610fd0565b005b61028760048036038101906102829190613001565b611052565b604051610294919061342f565b60405180910390f35b6102b760048036038101906102b29190612c3a565b611104565b6040516102c49190613817565b60405180910390f35b6102d56111bc565b6040516102e2919061342f565b60405180910390f35b6102f36111e6565b6040516103009190613555565b60405180910390f35b610323600480360381019061031e9190612e8c565b611278565b005b61033f600480360381019061033a9190612f56565b6113f9565b005b61035b60048036038101906103569190612e11565b6115f3565b005b61037760048036038101906103729190612c8c565b611655565b005b610393600480360381019061038e9190612c63565b6116db565b6040516103a0919061353a565b60405180910390f35b6103c360048036038101906103be9190613001565b611831565b6040516103d09190613555565b60405180910390f35b6103f360048036038101906103ee9190612ec8565b6118d8565b604051610404959493929190613832565b60405180910390f35b61042760048036038101906104229190612d86565b611a48565b604051610434919061353a565b60405180910390f35b61045760048036038101906104529190612c3a565b611adc565b6040516104699695949392919061344a565b60405180910390f35b60007f80ac58cd000000000000000000000000000000000000000000000000000000007bffffffffffffffffffffffffffffffffffffffffffffffffffffffff1916827bffffffffffffffffffffffffffffffffffffffffffffffffffffffff1916148061053d57507f5b5e139f000000000000000000000000000000000000000000000000000000007bffffffffffffffffffffffffffffffffffffffffffffffffffffffff1916827bffffffffffffffffffffffffffffffffffffffffffffffffffffffff1916145b8061054d575061054c82611cdd565b5b9050919050565b33600660009054906101000a900473ffffffffffffffffffffffffffffffffffffffff1673ffffffffffffffffffffffffffffffffffffffff168173ffffffffffffffffffffffffffffffffffffffff1614156105e6576040517f08c379a00000000000000000000000000000000000000000000000000000000081526004016105dd90613677565b60405180910390fd5b60001515600760008373ffffffffffffffffffffffffffffffffffffffff1673ffffffffffffffffffffffffffffffffffffffff16815260200190815260200160002060000160149054906101000a900460ff1615151461067c576040517f08c379a000000000000000000000000000000000000000000000000000000000815260040161067390613637565b60405180910390fd5b3373ffffffffffffffffffffffffffffffffffffffff168573ffffffffffffffffffffffffffffffffffffffff16146106ea576040517f08c379a00000000000000000000000000000000000000000000000000000000081526004016106e190613597565b60405180910390fd5b83600760008773ffffffffffffffffffffffffffffffffffffffff1673ffffffffffffffffffffffffffffffffffffffff16815260200190815260200160002060010190805190602001906107409291906128d5565b5082600760008773ffffffffffffffffffffffffffffffffffffffff1673ffffffffffffffffffffffffffffffffffffffff16815260200190815260200160002060020190805190602001906107979291906128d5565b5084600760008773ffffffffffffffffffffffffffffffffffffffff1673ffffffffffffffffffffffffffffffffffffffff16815260200190815260200160002060000160006101000a81548173ffffffffffffffffffffffffffffffffffffffff021916908373ffffffffffffffffffffffffffffffffffffffff1602179055506001600760008773ffffffffffffffffffffffffffffffffffffffff1673ffffffffffffffffffffffffffffffffffffffff16815260200190815260200160002060000160146101000a81548160ff02191690831515021790555081600760008773ffffffffffffffffffffffffffffffffffffffff1673ffffffffffffffffffffffffffffffffffffffff16815260200190815260200160002060040190805190602001906108ca9291906128d5565b507fb3eccf73f39b1c07947c780b2b39df2a1bb058b4037b0a42d0881ca1a028a132856040516108fa91906134c0565b60405180910390a15050505050565b60606000805461091890613b0c565b80601f016020809104026020016040519081016040528092919081815260200182805461094490613b0c565b80156109915780601f1061096657610100808354040283529160200191610991565b820191906000526020600020905b81548152906001019060200180831161097457829003601f168201915b5050505050905090565b60006109a682611d47565b6109e5576040517f08c379a00000000000000000000000000000000000000000000000000000000081526004016109dc90613737565b60405180910390fd5b6004600083815260200190815260200160002060009054906101000a900473ffffffffffffffffffffffffffffffffffffffff169050919050565b6000610a2b82611052565b90508073ffffffffffffffffffffffffffffffffffffffff168373ffffffffffffffffffffffffffffffffffffffff161415610a9c576040517f08c379a0000000000000000000000000000000000000000000000000000000008152600401610a9390613797565b60405180910390fd5b8073ffffffffffffffffffffffffffffffffffffffff16610abb611db3565b73ffffffffffffffffffffffffffffffffffffffff161480610aea5750610ae981610ae4611db3565b611a48565b5b610b29576040517f08c379a0000000000000000000000000000000000000000000000000000000008152600401610b2090613697565b60405180910390fd5b610b338383611dbb565b505050565b610b49610b43611db3565b82611e74565b610b88576040517f08c379a0000000000000000000000000000000000000000000000000000000008152600401610b7f906137b7565b60405180910390fd5b610b93838383611f52565b505050565b610bb3838383604051806020016040528060008152506115f3565b505050565b610bc181611052565b73ffffffffffffffffffffffffffffffffffffffff163373ffffffffffffffffffffffffffffffffffffffff161415610bf957600080fd5b6000600960003373ffffffffffffffffffffffffffffffffffffffff1673ffffffffffffffffffffffffffffffffffffffff168152602001908152602001600020805480602002602001604051908101604052809291908181526020016000905b82821015610eb857838290600052602060002090600602016040518060c001604052908160008201548152602001600182018054610c9790613b0c565b80601f0160208091040260200160405190810160405280929190818152602001828054610cc390613b0c565b8015610d105780601f10610ce557610100808354040283529160200191610d10565b820191906000526020600020905b815481529060010190602001808311610cf357829003601f168201915b50505050508152602001600282018054610d2990613b0c565b80601f0160208091040260200160405190810160405280929190818152602001828054610d5590613b0c565b8015610da25780601f10610d7757610100808354040283529160200191610da2565b820191906000526020600020905b815481529060010190602001808311610d8557829003601f168201915b50505050508152602001600382015481526020016004820160009054906101000a900460ff1615151515815260200160058201805480602002602001604051908101604052809291908181526020016000905b82821015610ea1578382906000526020600020018054610e1490613b0c565b80601f0160208091040260200160405190810160405280929190818152602001828054610e4090613b0c565b8015610e8d5780601f10610e6257610100808354040283529160200191610e8d565b820191906000526020600020905b815481529060010190602001808311610e7057829003601f168201915b505050505081526020019060010190610df5565b505050508152505081526020019060010190610c5a565b50505050905060005b8151811015610fcb5782828281518110610f04577f4e487b7100000000000000000000000000000000000000000000000000000000600052603260045260246000fd5b6020026020010151600001511415610fb8576001600960003373ffffffffffffffffffffffffffffffffffffffff1673ffffffffffffffffffffffffffffffffffffffff1681526020019081526020016000208281548110610f8f577f4e487b7100000000000000000000000000000000000000000000000000000000600052603260045260246000fd5b906000526020600020906006020160040160006101000a81548160ff0219169083151502179055505b8080610fc390613b6f565b915050610ec1565b505050565b610fd981611052565b73ffffffffffffffffffffffffffffffffffffffff163373ffffffffffffffffffffffffffffffffffffffff1614611046576040517f08c379a000000000000000000000000000000000000000000000000000000000815260040161103d906137f7565b60405180910390fd5b61104f816121ae565b50565b6000806002600084815260200190815260200160002060009054906101000a900473ffffffffffffffffffffffffffffffffffffffff169050600073ffffffffffffffffffffffffffffffffffffffff168173ffffffffffffffffffffffffffffffffffffffff1614156110fb576040517f08c379a00000000000000000000000000000000000000000000000000000000081526004016110f2906136d7565b60405180910390fd5b80915050919050565b60008073ffffffffffffffffffffffffffffffffffffffff168273ffffffffffffffffffffffffffffffffffffffff161415611175576040517f08c379a000000000000000000000000000000000000000000000000000000000815260040161116c906136b7565b60405180910390fd5b600360008373ffffffffffffffffffffffffffffffffffffffff1673ffffffffffffffffffffffffffffffffffffffff168152602001908152602001600020549050919050565b6000600660009054906101000a900473ffffffffffffffffffffffffffffffffffffffff16905090565b6060600180546111f590613b0c565b80601f016020809104026020016040519081016040528092919081815260200182805461122190613b0c565b801561126e5780601f106112435761010080835404028352916020019161126e565b820191906000526020600020905b81548152906001019060200180831161125157829003601f168201915b5050505050905090565b611280611db3565b73ffffffffffffffffffffffffffffffffffffffff168273ffffffffffffffffffffffffffffffffffffffff1614156112ee576040517f08c379a00000000000000000000000000000000000000000000000000000000081526004016112e590613617565b60405180910390fd5b80600560006112fb611db3565b73ffffffffffffffffffffffffffffffffffffffff1673ffffffffffffffffffffffffffffffffffffffff16815260200190815260200160002060008473ffffffffffffffffffffffffffffffffffffffff1673ffffffffffffffffffffffffffffffffffffffff16815260200190815260200160002060006101000a81548160ff0219169083151502179055508173ffffffffffffffffffffffffffffffffffffffff166113a8611db3565b73ffffffffffffffffffffffffffffffffffffffff167f17307eab39ab6107e8899845ad3d59bd9653f200f220920489ca2b5937696c31836040516113ed919061353a565b60405180910390a35050565b60011515600760003373ffffffffffffffffffffffffffffffffffffffff1673ffffffffffffffffffffffffffffffffffffffff16815260200190815260200160002060000160149054906101000a900460ff1615151461148f576040517f08c379a000000000000000000000000000000000000000000000000000000000815260040161148690613717565b60405180910390fd5b600060016008546114a09190613989565b905060006040518060c00160405280838152602001878152602001868152602001428152602001600115158152602001858152509050600960008473ffffffffffffffffffffffffffffffffffffffff1673ffffffffffffffffffffffffffffffffffffffff1681526020019081526020016000208190806001815401808255809150506001900390600052602060002090600602016000909190919091506000820151816000015560208201518160010190805190602001906115659291906128d5565b5060408201518160020190805190602001906115829291906128d5565b506060820151816003015560808201518160040160006101000a81548160ff02191690831515021790555060a08201518160050190805190602001906115c992919061295b565b5050506115d683836122bf565b60016008546115e59190613989565b600881905550505050505050565b6116046115fe611db3565b83611e74565b611643576040517f08c379a000000000000000000000000000000000000000000000000000000000815260040161163a906137b7565b60405180910390fd5b61164f848484846122dd565b50505050565b61165e81611052565b73ffffffffffffffffffffffffffffffffffffffff163373ffffffffffffffffffffffffffffffffffffffff16146116cb576040517f08c379a00000000000000000000000000000000000000000000000000000000081526004016116c2906137f7565b60405180910390fd5b6116d6828483610b98565b505050565b60003373ffffffffffffffffffffffffffffffffffffffff168273ffffffffffffffffffffffffffffffffffffffff161461174b576040517f08c379a0000000000000000000000000000000000000000000000000000000008152600401611742906135d7565b60405180910390fd5b60011515600760003373ffffffffffffffffffffffffffffffffffffffff1673ffffffffffffffffffffffffffffffffffffffff16815260200190815260200160002060000160149054906101000a900460ff161515146117e1576040517f08c379a00000000000000000000000000000000000000000000000000000000081526004016117d8906137d7565b60405180910390fd5b42600760003373ffffffffffffffffffffffffffffffffffffffff1673ffffffffffffffffffffffffffffffffffffffff1681526020019081526020016000206003018190555060019050919050565b606061183c82611d47565b61187b576040517f08c379a000000000000000000000000000000000000000000000000000000000815260040161187290613777565b60405180910390fd5b6000611885612339565b905060008151116118a557604051806020016040528060008152506118d0565b806118af84612350565b6040516020016118c092919061340b565b6040516020818303038152906040525b915050919050565b600960205281600052604060002081815481106118f457600080fd5b90600052602060002090600602016000915091505080600001549080600101805461191e90613b0c565b80601f016020809104026020016040519081016040528092919081815260200182805461194a90613b0c565b80156119975780601f1061196c57610100808354040283529160200191611997565b820191906000526020600020905b81548152906001019060200180831161197a57829003601f168201915b5050505050908060020180546119ac90613b0c565b80601f01602080910402602001604051908101604052809291908181526020018280546119d890613b0c565b8015611a255780601f106119fa57610100808354040283529160200191611a25565b820191906000526020600020905b815481529060010190602001808311611a0857829003601f168201915b5050505050908060030154908060040160009054906101000a900460ff16905085565b6000600560008473ffffffffffffffffffffffffffffffffffffffff1673ffffffffffffffffffffffffffffffffffffffff16815260200190815260200160002060008373ffffffffffffffffffffffffffffffffffffffff1673ffffffffffffffffffffffffffffffffffffffff16815260200190815260200160002060009054906101000a900460ff16905092915050565b60076020528060005260406000206000915090508060000160009054906101000a900473ffffffffffffffffffffffffffffffffffffffff16908060000160149054906101000a900460ff1690806001018054611b3890613b0c565b80601f0160208091040260200160405190810160405280929190818152602001828054611b6490613b0c565b8015611bb15780601f10611b8657610100808354040283529160200191611bb1565b820191906000526020600020905b815481529060010190602001808311611b9457829003601f168201915b505050505090806002018054611bc690613b0c565b80601f0160208091040260200160405190810160405280929190818152602001828054611bf290613b0c565b8015611c3f5780601f10611c1457610100808354040283529160200191611c3f565b820191906000526020600020905b815481529060010190602001808311611c2257829003601f168201915b505050505090806003015490806004018054611c5a90613b0c565b80601f0160208091040260200160405190810160405280929190818152602001828054611c8690613b0c565b8015611cd35780601f10611ca857610100808354040283529160200191611cd3565b820191906000526020600020905b815481529060010190602001808311611cb657829003601f168201915b5050505050905086565b60007f01ffc9a7000000000000000000000000000000000000000000000000000000007bffffffffffffffffffffffffffffffffffffffffffffffffffffffff1916827bffffffffffffffffffffffffffffffffffffffffffffffffffffffff1916149050919050565b60008073ffffffffffffffffffffffffffffffffffffffff166002600084815260200190815260200160002060009054906101000a900473ffffffffffffffffffffffffffffffffffffffff1673ffffffffffffffffffffffffffffffffffffffff1614159050919050565b600033905090565b816004600083815260200190815260200160002060006101000a81548173ffffffffffffffffffffffffffffffffffffffff021916908373ffffffffffffffffffffffffffffffffffffffff160217905550808273ffffffffffffffffffffffffffffffffffffffff16611e2e83611052565b73ffffffffffffffffffffffffffffffffffffffff167f8c5be1e5ebec7d5bd14f71427d1e84f3dd0314c0f7b2291e5b200ac8c7c3b92560405160405180910390a45050565b6000611e7f82611d47565b611ebe576040517f08c379a0000000000000000000000000000000000000000000000000000000008152600401611eb590613657565b60405180910390fd5b6000611ec983611052565b90508073ffffffffffffffffffffffffffffffffffffffff168473ffffffffffffffffffffffffffffffffffffffff161480611f3857508373ffffffffffffffffffffffffffffffffffffffff16611f208461099b565b73ffffffffffffffffffffffffffffffffffffffff16145b80611f495750611f488185611a48565b5b91505092915050565b8273ffffffffffffffffffffffffffffffffffffffff16611f7282611052565b73ffffffffffffffffffffffffffffffffffffffff1614611fc8576040517f08c379a0000000000000000000000000000000000000000000000000000000008152600401611fbf90613757565b60405180910390fd5b600073ffffffffffffffffffffffffffffffffffffffff168273ffffffffffffffffffffffffffffffffffffffff161415612038576040517f08c379a000000000000000000000000000000000000000000000000000000000815260040161202f906135f7565b60405180910390fd5b6120438383836124fd565b61204e600082611dbb565b6001600360008573ffffffffffffffffffffffffffffffffffffffff1673ffffffffffffffffffffffffffffffffffffffff168152602001908152602001600020600082825461209e9190613a10565b925050819055506001600360008473ffffffffffffffffffffffffffffffffffffffff1673ffffffffffffffffffffffffffffffffffffffff16815260200190815260200160002060008282546120f59190613989565b92505081905550816002600083815260200190815260200160002060006101000a81548173ffffffffffffffffffffffffffffffffffffffff021916908373ffffffffffffffffffffffffffffffffffffffff160217905550808273ffffffffffffffffffffffffffffffffffffffff168473ffffffffffffffffffffffffffffffffffffffff167fddf252ad1be2c89b69c2b068fc378daa952ba7f163c4a11628f55a4df523b3ef60405160405180910390a4505050565b60006121b982611052565b90506121c7816000846124fd565b6121d2600083611dbb565b6001600360008373ffffffffffffffffffffffffffffffffffffffff1673ffffffffffffffffffffffffffffffffffffffff16815260200190815260200160002060008282546122229190613a10565b925050819055506002600083815260200190815260200160002060006101000a81549073ffffffffffffffffffffffffffffffffffffffff021916905581600073ffffffffffffffffffffffffffffffffffffffff168273ffffffffffffffffffffffffffffffffffffffff167fddf252ad1be2c89b69c2b068fc378daa952ba7f163c4a11628f55a4df523b3ef60405160405180910390a45050565b6122d9828260405180602001604052806000815250612502565b5050565b6122e8848484611f52565b6122f48484848461255d565b612333576040517f08c379a000000000000000000000000000000000000000000000000000000000815260040161232a90613577565b60405180910390fd5b50505050565b606060405180602001604052806000815250905090565b60606000821415612398576040518060400160405280600181526020017f300000000000000000000000000000000000000000000000000000000000000081525090506124f8565b600082905060005b600082146123ca5780806123b390613b6f565b915050600a826123c391906139df565b91506123a0565b60008167ffffffffffffffff81111561240c577f4e487b7100000000000000000000000000000000000000000000000000000000600052604160045260246000fd5b6040519080825280601f01601f19166020018201604052801561243e5781602001600182028036833780820191505090505b5090505b600085146124f1576001826124579190613a10565b9150600a856124669190613bb8565b60306124729190613989565b60f81b8183815181106124ae577f4e487b7100000000000000000000000000000000000000000000000000000000600052603260045260246000fd5b60200101907effffffffffffffffffffffffffffffffffffffffffffffffffffffffffffff1916908160001a905350600a856124ea91906139df565b9450612442565b8093505050505b919050565b505050565b61250c83836126f4565b612519600084848461255d565b612558576040517f08c379a000000000000000000000000000000000000000000000000000000000815260040161254f90613577565b60405180910390fd5b505050565b600061257e8473ffffffffffffffffffffffffffffffffffffffff166128c2565b156126e7578373ffffffffffffffffffffffffffffffffffffffff1663150b7a026125a7611db3565b8786866040518563ffffffff1660e01b81526004016125c994939291906134ee565b602060405180830381600087803b1580156125e357600080fd5b505af192505050801561261457506040513d601f19601f820116820180604052508101906126119190612f2d565b60015b612697573d8060008114612644576040519150601f19603f3d011682016040523d82523d6000602084013e612649565b606091505b5060008151141561268f576040517f08c379a000000000000000000000000000000000000000000000000000000000815260040161268690613577565b60405180910390fd5b805181602001fd5b63150b7a0260e01b7bffffffffffffffffffffffffffffffffffffffffffffffffffffffff1916817bffffffffffffffffffffffffffffffffffffffffffffffffffffffff1916149150506126ec565b600190505b949350505050565b600073ffffffffffffffffffffffffffffffffffffffff168273ffffffffffffffffffffffffffffffffffffffff161415612764576040517f08c379a000000000000000000000000000000000000000000000000000000000815260040161275b906136f7565b60405180910390fd5b61276d81611d47565b156127ad576040517f08c379a00000000000000000000000000000000000000000000000000000000081526004016127a4906135b7565b60405180910390fd5b6127b9600083836124fd565b6001600360008473ffffffffffffffffffffffffffffffffffffffff1673ffffffffffffffffffffffffffffffffffffffff16815260200190815260200160002060008282546128099190613989565b92505081905550816002600083815260200190815260200160002060006101000a81548173ffffffffffffffffffffffffffffffffffffffff021916908373ffffffffffffffffffffffffffffffffffffffff160217905550808273ffffffffffffffffffffffffffffffffffffffff16600073ffffffffffffffffffffffffffffffffffffffff167fddf252ad1be2c89b69c2b068fc378daa952ba7f163c4a11628f55a4df523b3ef60405160405180910390a45050565b600080823b905060008111915050919050565b8280546128e190613b0c565b90600052602060002090601f016020900481019282612903576000855561294a565b82601f1061291c57805160ff191683800117855561294a565b8280016001018555821561294a579182015b8281111561294957825182559160200191906001019061292e565b5b50905061295791906129bb565b5090565b8280548282559060005260206000209081019282156129aa579160200282015b828111156129a95782518290805190602001906129999291906128d5565b509160200191906001019061297b565b5b5090506129b791906129d8565b5090565b5b808211156129d45760008160009055506001016129bc565b5090565b5b808211156129f857600081816129ef91906129fc565b506001016129d9565b5090565b508054612a0890613b0c565b6000825580601f10612a1a5750612a39565b601f016020900490600052602060002090810190612a3891906129bb565b5b50565b6000612a4f612a4a846138b8565b613893565b90508083825260208201905082856020860282011115612a6e57600080fd5b60005b85811015612ab857813567ffffffffffffffff811115612a9057600080fd5b808601612a9d8982612bfb565b85526020850194506020840193505050600181019050612a71565b5050509392505050565b6000612ad5612ad0846138e4565b613893565b905082815260208101848484011115612aed57600080fd5b612af8848285613aca565b509392505050565b6000612b13612b0e84613915565b613893565b905082815260208101848484011115612b2b57600080fd5b612b36848285613aca565b509392505050565b600081359050612b4d816141de565b92915050565b600081359050612b62816141f5565b92915050565b600082601f830112612b7957600080fd5b8135612b89848260208601612a3c565b91505092915050565b600081359050612ba18161420c565b92915050565b600081359050612bb681614223565b92915050565b600081519050612bcb81614223565b92915050565b600082601f830112612be257600080fd5b8135612bf2848260208601612ac2565b91505092915050565b600082601f830112612c0c57600080fd5b8135612c1c848260208601612b00565b91505092915050565b600081359050612c348161423a565b92915050565b600060208284031215612c4c57600080fd5b6000612c5a84828501612b3e565b91505092915050565b600060208284031215612c7557600080fd5b6000612c8384828501612b53565b91505092915050565b600080600060608486031215612ca157600080fd5b6000612caf86828701612b53565b9350506020612cc086828701612b53565b9250506040612cd186828701612c25565b9150509250925092565b60008060008060808587031215612cf157600080fd5b6000612cff87828801612b53565b945050602085013567ffffffffffffffff811115612d1c57600080fd5b612d2887828801612bfb565b935050604085013567ffffffffffffffff811115612d4557600080fd5b612d5187828801612bfb565b925050606085013567ffffffffffffffff811115612d6e57600080fd5b612d7a87828801612bfb565b91505092959194509250565b60008060408385031215612d9957600080fd5b6000612da785828601612b3e565b9250506020612db885828601612b3e565b9150509250929050565b600080600060608486031215612dd757600080fd5b6000612de586828701612b3e565b9350506020612df686828701612b3e565b9250506040612e0786828701612c25565b9150509250925092565b60008060008060808587031215612e2757600080fd5b6000612e3587828801612b3e565b9450506020612e4687828801612b3e565b9350506040612e5787828801612c25565b925050606085013567ffffffffffffffff811115612e7457600080fd5b612e8087828801612bd1565b91505092959194509250565b60008060408385031215612e9f57600080fd5b6000612ead85828601612b3e565b9250506020612ebe85828601612b92565b9150509250929050565b60008060408385031215612edb57600080fd5b6000612ee985828601612b3e565b9250506020612efa85828601612c25565b9150509250929050565b600060208284031215612f1657600080fd5b6000612f2484828501612ba7565b91505092915050565b600060208284031215612f3f57600080fd5b6000612f4d84828501612bbc565b91505092915050565b60008060008060808587031215612f6c57600080fd5b600085013567ffffffffffffffff811115612f8657600080fd5b612f9287828801612bfb565b945050602085013567ffffffffffffffff811115612faf57600080fd5b612fbb87828801612bfb565b935050604085013567ffffffffffffffff811115612fd857600080fd5b612fe487828801612b68565b9250506060612ff587828801612b53565b91505092959194509250565b60006020828403121561301357600080fd5b600061302184828501612c25565b91505092915050565b61303381613a56565b82525050565b61304281613a44565b82525050565b61305181613a68565b82525050565b600061306282613946565b61306c818561395c565b935061307c818560208601613ad9565b61308581613ca5565b840191505092915050565b600061309b82613951565b6130a5818561396d565b93506130b5818560208601613ad9565b6130be81613ca5565b840191505092915050565b60006130d482613951565b6130de818561397e565b93506130ee818560208601613ad9565b80840191505092915050565b600061310760328361396d565b915061311282613cb6565b604082019050919050565b600061312a601c8361396d565b915061313582613d05565b602082019050919050565b600061314d601c8361396d565b915061315882613d2e565b602082019050919050565b600061317060198361396d565b915061317b82613d57565b602082019050919050565b600061319360248361396d565b915061319e82613d80565b604082019050919050565b60006131b660198361396d565b91506131c182613dcf565b602082019050919050565b60006131d960128361396d565b91506131e482613df8565b602082019050919050565b60006131fc602c8361396d565b915061320782613e21565b604082019050919050565b600061321f601f8361396d565b915061322a82613e70565b602082019050919050565b600061324260178361396d565b915061324d82613e99565b602082019050919050565b600061326560388361396d565b915061327082613ec2565b604082019050919050565b6000613288602a8361396d565b915061329382613f11565b604082019050919050565b60006132ab60298361396d565b91506132b682613f60565b604082019050919050565b60006132ce60208361396d565b91506132d982613faf565b602082019050919050565b60006132f160158361396d565b91506132fc82613fd8565b602082019050919050565b6000613314602c8361396d565b915061331f82614001565b604082019050919050565b600061333760298361396d565b915061334282614050565b604082019050919050565b600061335a602f8361396d565b91506133658261409f565b604082019050919050565b600061337d60218361396d565b9150613388826140ee565b604082019050919050565b60006133a060318361396d565b91506133ab8261413d565b604082019050919050565b60006133c360168361396d565b91506133ce8261418c565b602082019050919050565b60006133e660118361396d565b91506133f1826141b5565b602082019050919050565b61340581613ac0565b82525050565b600061341782856130c9565b915061342382846130c9565b91508190509392505050565b60006020820190506134446000830184613039565b92915050565b600060c08201905061345f600083018961302a565b61346c6020830188613048565b818103604083015261347e8187613090565b905081810360608301526134928186613090565b90506134a160808301856133fc565b81810360a08301526134b38184613090565b9050979650505050505050565b60006040820190506134d5600083018461302a565b81810360208301526134e681613235565b905092915050565b60006080820190506135036000830187613039565b6135106020830186613039565b61351d60408301856133fc565b818103606083015261352f8184613057565b905095945050505050565b600060208201905061354f6000830184613048565b92915050565b6000602082019050818103600083015261356f8184613090565b905092915050565b60006020820190508181036000830152613590816130fa565b9050919050565b600060208201905081810360008301526135b08161311d565b9050919050565b600060208201905081810360008301526135d081613140565b9050919050565b600060208201905081810360008301526135f081613163565b9050919050565b6000602082019050818103600083015261361081613186565b9050919050565b60006020820190508181036000830152613630816131a9565b9050919050565b60006020820190508181036000830152613650816131cc565b9050919050565b60006020820190508181036000830152613670816131ef565b9050919050565b6000602082019050818103600083015261369081613212565b9050919050565b600060208201905081810360008301526136b081613258565b9050919050565b600060208201905081810360008301526136d08161327b565b9050919050565b600060208201905081810360008301526136f08161329e565b9050919050565b60006020820190508181036000830152613710816132c1565b9050919050565b60006020820190508181036000830152613730816132e4565b9050919050565b6000602082019050818103600083015261375081613307565b9050919050565b600060208201905081810360008301526137708161332a565b9050919050565b600060208201905081810360008301526137908161334d565b9050919050565b600060208201905081810360008301526137b081613370565b9050919050565b600060208201905081810360008301526137d081613393565b9050919050565b600060208201905081810360008301526137f0816133b6565b9050919050565b60006020820190508181036000830152613810816133d9565b9050919050565b600060208201905061382c60008301846133fc565b92915050565b600060a08201905061384760008301886133fc565b81810360208301526138598187613090565b9050818103604083015261386d8186613090565b905061387c60608301856133fc565b6138896080830184613048565b9695505050505050565b600061389d6138ae565b90506138a98282613b3e565b919050565b6000604051905090565b600067ffffffffffffffff8211156138d3576138d2613c76565b5b602082029050602081019050919050565b600067ffffffffffffffff8211156138ff576138fe613c76565b5b61390882613ca5565b9050602081019050919050565b600067ffffffffffffffff8211156139305761392f613c76565b5b61393982613ca5565b9050602081019050919050565b600081519050919050565b600081519050919050565b600082825260208201905092915050565b600082825260208201905092915050565b600081905092915050565b600061399482613ac0565b915061399f83613ac0565b9250827fffffffffffffffffffffffffffffffffffffffffffffffffffffffffffffffff038211156139d4576139d3613be9565b5b828201905092915050565b60006139ea82613ac0565b91506139f583613ac0565b925082613a0557613a04613c18565b5b828204905092915050565b6000613a1b82613ac0565b9150613a2683613ac0565b925082821015613a3957613a38613be9565b5b828203905092915050565b6000613a4f82613aa0565b9050919050565b6000613a6182613aa0565b9050919050565b60008115159050919050565b60007fffffffff0000000000000000000000000000000000000000000000000000000082169050919050565b600073ffffffffffffffffffffffffffffffffffffffff82169050919050565b6000819050919050565b82818337600083830152505050565b60005b83811015613af7578082015181840152602081019050613adc565b83811115613b06576000848401525b50505050565b60006002820490506001821680613b2457607f821691505b60208210811415613b3857613b37613c47565b5b50919050565b613b4782613ca5565b810181811067ffffffffffffffff82111715613b6657613b65613c76565b5b80604052505050565b6000613b7a82613ac0565b91507fffffffffffffffffffffffffffffffffffffffffffffffffffffffffffffffff821415613bad57613bac613be9565b5b600182019050919050565b6000613bc382613ac0565b9150613bce83613ac0565b925082613bde57613bdd613c18565b5b828206905092915050565b7f4e487b7100000000000000000000000000000000000000000000000000000000600052601160045260246000fd5b7f4e487b7100000000000000000000000000000000000000000000000000000000600052601260045260246000fd5b7f4e487b7100000000000000000000000000000000000000000000000000000000600052602260045260246000fd5b7f4e487b7100000000000000000000000000000000000000000000000000000000600052604160045260246000fd5b6000601f19601f8301169050919050565b7f4552433732313a207472616e7366657220746f206e6f6e20455243373231526560008201527f63656976657220696d706c656d656e7465720000000000000000000000000000602082015250565b7f43616e6e6f7420526567697374657220736f6d656f6e6520656c736500000000600082015250565b7f4552433732313a20746f6b656e20616c7265616479206d696e74656400000000600082015250565b7f43616e6e6f74206c6f67696e20736f6d656f6e6520656c736500000000000000600082015250565b7f4552433732313a207472616e7366657220746f20746865207a65726f2061646460008201527f7265737300000000000000000000000000000000000000000000000000000000602082015250565b7f4552433732313a20617070726f766520746f2063616c6c657200000000000000600082015250565b7f416c726561647920726567697374657265640000000000000000000000000000600082015250565b7f4552433732313a206f70657261746f7220717565727920666f72206e6f6e657860008201527f697374656e7420746f6b656e0000000000000000000000000000000000000000602082015250565b7f6f776e65722063616e6e6f74207265676973746572207468656d73656c662e00600082015250565b7f726567697374726174696f6e207375636365737366756c000000000000000000600082015250565b7f4552433732313a20617070726f76652063616c6c6572206973206e6f74206f7760008201527f6e6572206e6f7220617070726f76656420666f7220616c6c0000000000000000602082015250565b7f4552433732313a2062616c616e636520717565727920666f7220746865207a6560008201527f726f206164647265737300000000000000000000000000000000000000000000602082015250565b7f4552433732313a206f776e657220717565727920666f72206e6f6e657869737460008201527f656e7420746f6b656e0000000000000000000000000000000000000000000000602082015250565b7f4552433732313a206d696e7420746f20746865207a65726f2061646472657373600082015250565b7f73656e646572206e6f7420726567697374657265640000000000000000000000600082015250565b7f4552433732313a20617070726f76656420717565727920666f72206e6f6e657860008201527f697374656e7420746f6b656e0000000000000000000000000000000000000000602082015250565b7f4552433732313a207472616e73666572206f6620746f6b656e2074686174206960008201527f73206e6f74206f776e0000000000000000000000000000000000000000000000602082015250565b7f4552433732314d657461646174613a2055524920717565727920666f72206e6f60008201527f6e6578697374656e7420746f6b656e0000000000000000000000000000000000602082015250565b7f4552433732313a20617070726f76616c20746f2063757272656e74206f776e6560008201527f7200000000000000000000000000000000000000000000000000000000000000602082015250565b7f4552433732313a207472616e736665722063616c6c6572206973206e6f74206f60008201527f776e6572206e6f7220617070726f766564000000000000000000000000000000602082015250565b7f41646472657373206e6f74207265676973746572656400000000000000000000600082015250565b7f596f7520617265206e6f74206f776e6572000000000000000000000000000000600082015250565b6141e781613a44565b81146141f257600080fd5b50565b6141fe81613a56565b811461420957600080fd5b50565b61421581613a68565b811461422057600080fd5b50565b61422c81613a74565b811461423757600080fd5b50565b61424381613ac0565b811461424e57600080fd5b5056fea2646970667358221220c795c7e913647710962ef2c28d59497a7b02b7a7d0d39ee444509938c2e9e9d064736f6c63430008040033",
  "immutableReferences": {},
  "source": "pragma solidity ^0.8;\r\nimport \"@openzeppelin/contracts/token/ERC721/ERC721.sol\";\r\nimport \"./Registration.sol\";\r\n\r\ncontract Product is ERC721,Registration  {\r\n    \r\n    constructor() ERC721(\"Item\",\"ITEM\"){\r\n    }\r\n    \r\n    struct Item{\r\n        uint256 key;\r\n        string name;\r\n        string designer;\r\n        uint256 registeredOn;\r\n        bool isVerified;\r\n        string[] imgHash;\r\n    }\r\n    \r\n    uint256 count = 1000;\r\n    mapping(address=>Item[]) public productOwner;\r\n    \r\n    function mintItem(string memory name,string memory desg, string[] memory imgArr,address payable owner)public {\r\n        require(User_Record[msg.sender].isAuth == true , \"sender not registered\");\r\n        uint256 id = count+1;\r\n        Item memory i = Item(id,name,desg,block.timestamp,true,imgArr);\r\n        productOwner[owner].push(i);\r\n        _safeMint(owner,id);\r\n        count = count+1;\r\n    }\r\n    \r\n    function transferOwnerShip(address payable newOnwer,address payable currentOwner,uint256 id) public {\r\n        require(msg.sender == ownerOf(id),\"You are not owner\");\r\n        safeTransferFrom(currentOwner,newOnwer,id);\r\n    }\r\n    \r\n    function deleteToken(uint256 id)public {\r\n        require(msg.sender == ownerOf(id),\"You are not owner\");\r\n        _burn(id);\r\n    }\r\n    \r\n    function verifyProduct(uint256 id) public{\r\n        require(msg.sender != ownerOf(id));\r\n        Item[] memory arr = productOwner[msg.sender];\r\n        for(uint256 i = 0;i<arr.length;i++){\r\n            if(arr[i].key == id){\r\n                productOwner[msg.sender][i].isVerified = true;\r\n            }\r\n        }\r\n    }\r\n}\r\n",
  "sourcePath": "C:/Users/shreya/Documents/ds/contracts/Product.sol",
  "compiler": {
    "name": "solc",
    "version": "0.8.4+commit.c7e474f2.Emscripten.clang"
  },
  "schemaVersion": "3.3.4",
  "updatedAt": "2021-05-20T19:18:00.423Z",
  "networkType": "ethereum",
  "devdoc": {
    "kind": "dev",
    "methods": {
      "approve(address,uint256)": {
        "details": "See {IERC721-approve}."
      },
      "balanceOf(address)": {
        "details": "See {IERC721-balanceOf}."
      },
      "getApproved(uint256)": {
        "details": "See {IERC721-getApproved}."
      },
      "isApprovedForAll(address,address)": {
        "details": "See {IERC721-isApprovedForAll}."
      },
      "name()": {
        "details": "See {IERC721Metadata-name}."
      },
      "ownerOf(uint256)": {
        "details": "See {IERC721-ownerOf}."
      },
      "safeTransferFrom(address,address,uint256)": {
        "details": "See {IERC721-safeTransferFrom}."
      },
      "safeTransferFrom(address,address,uint256,bytes)": {
        "details": "See {IERC721-safeTransferFrom}."
      },
      "setApprovalForAll(address,bool)": {
        "details": "See {IERC721-setApprovalForAll}."
      },
      "supportsInterface(bytes4)": {
        "details": "See {IERC165-supportsInterface}."
      },
      "symbol()": {
        "details": "See {IERC721Metadata-symbol}."
      },
      "tokenURI(uint256)": {
        "details": "See {IERC721Metadata-tokenURI}."
      },
      "transferFrom(address,address,uint256)": {
        "details": "See {IERC721-transferFrom}."
      }
    },
    "version": 1
  },
  "userdoc": {
    "kind": "user",
    "methods": {},
    "version": 1
  }
}