{
  "contractName": "Product",
  "abi": [
    {
      "inputs": [],
      "stateMutability": "nonpayable",
      "type": "constructor"
    },
    {
      "anonymous": false,
      "inputs": [
        {
          "indexed": true,
          "internalType": "address",
          "name": "owner",
          "type": "address"
        },
        {
          "indexed": true,
          "internalType": "address",
          "name": "approved",
          "type": "address"
        },
        {
          "indexed": true,
          "internalType": "uint256",
          "name": "tokenId",
          "type": "uint256"
        }
      ],
      "name": "Approval",
      "type": "event"
    },
    {
      "anonymous": false,
      "inputs": [
        {
          "indexed": true,
          "internalType": "address",
          "name": "owner",
          "type": "address"
        },
        {
          "indexed": true,
          "internalType": "address",
          "name": "operator",
          "type": "address"
        },
        {
          "indexed": false,
          "internalType": "bool",
          "name": "approved",
          "type": "bool"
        }
      ],
      "name": "ApprovalForAll",
      "type": "event"
    },
    {
      "anonymous": false,
      "inputs": [
        {
          "indexed": false,
          "internalType": "address payable",
          "name": "",
          "type": "address"
        },
        {
          "indexed": false,
          "internalType": "string",
          "name": "s",
          "type": "string"
        }
      ],
      "name": "Registered",
      "type": "event"
    },
    {
      "anonymous": false,
      "inputs": [
        {
          "indexed": true,
          "internalType": "address",
          "name": "from",
          "type": "address"
        },
        {
          "indexed": true,
          "internalType": "address",
          "name": "to",
          "type": "address"
        },
        {
          "indexed": true,
          "internalType": "uint256",
          "name": "tokenId",
          "type": "uint256"
        }
      ],
      "name": "Transfer",
      "type": "event"
    },
    {
      "inputs": [
        {
          "internalType": "address",
          "name": "",
          "type": "address"
        }
      ],
      "name": "User_Record",
      "outputs": [
        {
          "internalType": "address payable",
          "name": "user_addr",
          "type": "address"
        },
        {
          "internalType": "bool",
          "name": "isAuth",
          "type": "bool"
        },
        {
          "internalType": "string",
          "name": "first_name",
          "type": "string"
        },
        {
          "internalType": "string",
          "name": "user_type",
          "type": "string"
        },
        {
          "internalType": "uint256",
          "name": "lastCheckinTime",
          "type": "uint256"
        },
        {
          "internalType": "string",
          "name": "profile",
          "type": "string"
        }
      ],
      "stateMutability": "view",
      "type": "function",
      "constant": true
    },
    {
      "inputs": [
        {
          "internalType": "address",
          "name": "to",
          "type": "address"
        },
        {
          "internalType": "uint256",
          "name": "tokenId",
          "type": "uint256"
        }
      ],
      "name": "approve",
      "outputs": [],
      "stateMutability": "nonpayable",
      "type": "function"
    },
    {
      "inputs": [
        {
          "internalType": "address",
          "name": "owner",
          "type": "address"
        }
      ],
      "name": "balanceOf",
      "outputs": [
        {
          "internalType": "uint256",
          "name": "",
          "type": "uint256"
        }
      ],
      "stateMutability": "view",
      "type": "function",
      "constant": true
    },
    {
      "inputs": [
        {
          "internalType": "uint256",
          "name": "tokenId",
          "type": "uint256"
        }
      ],
      "name": "getApproved",
      "outputs": [
        {
          "internalType": "address",
          "name": "",
          "type": "address"
        }
      ],
      "stateMutability": "view",
      "type": "function",
      "constant": true
    },
    {
      "inputs": [],
      "name": "getOwner",
      "outputs": [
        {
          "internalType": "address",
          "name": "",
          "type": "address"
        }
      ],
      "stateMutability": "view",
      "type": "function",
      "constant": true
    },
    {
      "inputs": [
        {
          "internalType": "address",
          "name": "owner",
          "type": "address"
        },
        {
          "internalType": "address",
          "name": "operator",
          "type": "address"
        }
      ],
      "name": "isApprovedForAll",
      "outputs": [
        {
          "internalType": "bool",
          "name": "",
          "type": "bool"
        }
      ],
      "stateMutability": "view",
      "type": "function",
      "constant": true
    },
    {
      "inputs": [],
      "name": "name",
      "outputs": [
        {
          "internalType": "string",
          "name": "",
          "type": "string"
        }
      ],
      "stateMutability": "view",
      "type": "function",
      "constant": true
    },
    {
      "inputs": [
        {
          "internalType": "uint256",
          "name": "tokenId",
          "type": "uint256"
        }
      ],
      "name": "ownerOf",
      "outputs": [
        {
          "internalType": "address",
          "name": "",
          "type": "address"
        }
      ],
      "stateMutability": "view",
      "type": "function",
      "constant": true
    },
    {
      "inputs": [
        {
          "internalType": "address",
          "name": "",
          "type": "address"
        },
        {
          "internalType": "uint256",
          "name": "",
          "type": "uint256"
        }
      ],
      "name": "productOwner",
      "outputs": [
        {
          "internalType": "uint256",
          "name": "key",
          "type": "uint256"
        },
        {
          "internalType": "string",
          "name": "name",
          "type": "string"
        },
        {
          "internalType": "string",
          "name": "designer",
          "type": "string"
        },
        {
          "internalType": "uint256",
          "name": "registeredOn",
          "type": "uint256"
        },
        {
          "internalType": "bool",
          "name": "isVerified",
          "type": "bool"
        },
        {
          "internalType": "uint256",
          "name": "isBurned",
          "type": "uint256"
        },
        {
          "internalType": "uint256",
          "name": "isTransfered",
          "type": "uint256"
        }
      ],
      "stateMutability": "view",
      "type": "function",
      "constant": true
    },
    {
      "inputs": [
        {
          "internalType": "address payable",
          "name": "sender",
          "type": "address"
        },
        {
          "internalType": "string",
          "name": "f_name",
          "type": "string"
        },
        {
          "internalType": "string",
          "name": "u_type",
          "type": "string"
        },
        {
          "internalType": "string",
          "name": "profile",
          "type": "string"
        }
      ],
      "name": "register",
      "outputs": [],
      "stateMutability": "nonpayable",
      "type": "function"
    },
    {
      "inputs": [
        {
          "internalType": "address",
          "name": "from",
          "type": "address"
        },
        {
          "internalType": "address",
          "name": "to",
          "type": "address"
        },
        {
          "internalType": "uint256",
          "name": "tokenId",
          "type": "uint256"
        }
      ],
      "name": "safeTransferFrom",
      "outputs": [],
      "stateMutability": "nonpayable",
      "type": "function"
    },
    {
      "inputs": [
        {
          "internalType": "address",
          "name": "from",
          "type": "address"
        },
        {
          "internalType": "address",
          "name": "to",
          "type": "address"
        },
        {
          "internalType": "uint256",
          "name": "tokenId",
          "type": "uint256"
        },
        {
          "internalType": "bytes",
          "name": "_data",
          "type": "bytes"
        }
      ],
      "name": "safeTransferFrom",
      "outputs": [],
      "stateMutability": "nonpayable",
      "type": "function"
    },
    {
      "inputs": [
        {
          "internalType": "address",
          "name": "operator",
          "type": "address"
        },
        {
          "internalType": "bool",
          "name": "approved",
          "type": "bool"
        }
      ],
      "name": "setApprovalForAll",
      "outputs": [],
      "stateMutability": "nonpayable",
      "type": "function"
    },
    {
      "inputs": [
        {
          "internalType": "address payable",
          "name": "sender",
          "type": "address"
        }
      ],
      "name": "signin",
      "outputs": [
        {
          "internalType": "bool",
          "name": "",
          "type": "bool"
        }
      ],
      "stateMutability": "nonpayable",
      "type": "function"
    },
    {
      "inputs": [
        {
          "internalType": "bytes4",
          "name": "interfaceId",
          "type": "bytes4"
        }
      ],
      "name": "supportsInterface",
      "outputs": [
        {
          "internalType": "bool",
          "name": "",
          "type": "bool"
        }
      ],
      "stateMutability": "view",
      "type": "function",
      "constant": true
    },
    {
      "inputs": [],
      "name": "symbol",
      "outputs": [
        {
          "internalType": "string",
          "name": "",
          "type": "string"
        }
      ],
      "stateMutability": "view",
      "type": "function",
      "constant": true
    },
    {
      "inputs": [
        {
          "internalType": "uint256",
          "name": "tokenId",
          "type": "uint256"
        }
      ],
      "name": "tokenURI",
      "outputs": [
        {
          "internalType": "string",
          "name": "",
          "type": "string"
        }
      ],
      "stateMutability": "view",
      "type": "function",
      "constant": true
    },
    {
      "inputs": [
        {
          "internalType": "address",
          "name": "from",
          "type": "address"
        },
        {
          "internalType": "address",
          "name": "to",
          "type": "address"
        },
        {
          "internalType": "uint256",
          "name": "tokenId",
          "type": "uint256"
        }
      ],
      "name": "transferFrom",
      "outputs": [],
      "stateMutability": "nonpayable",
      "type": "function"
    },
    {
      "inputs": [
        {
          "internalType": "string",
          "name": "name",
          "type": "string"
        },
        {
          "internalType": "string",
          "name": "desg",
          "type": "string"
        },
        {
          "internalType": "string[]",
          "name": "imgArr",
          "type": "string[]"
        },
        {
          "internalType": "address payable",
          "name": "owner",
          "type": "address"
        }
      ],
      "name": "mintItem",
      "outputs": [],
      "stateMutability": "nonpayable",
      "type": "function"
    },
    {
      "inputs": [
        {
          "internalType": "address",
          "name": "add",
          "type": "address"
        }
      ],
      "name": "getItems",
      "outputs": [
        {
          "components": [
            {
              "internalType": "uint256",
              "name": "key",
              "type": "uint256"
            },
            {
              "internalType": "string",
              "name": "name",
              "type": "string"
            },
            {
              "internalType": "string",
              "name": "designer",
              "type": "string"
            },
            {
              "internalType": "uint256",
              "name": "registeredOn",
              "type": "uint256"
            },
            {
              "internalType": "bool",
              "name": "isVerified",
              "type": "bool"
            },
            {
              "internalType": "string[]",
              "name": "imgHash",
              "type": "string[]"
            },
            {
              "internalType": "uint256",
              "name": "isBurned",
              "type": "uint256"
            },
            {
              "internalType": "uint256",
              "name": "isTransfered",
              "type": "uint256"
            }
          ],
          "internalType": "struct Product.Item[]",
          "name": "",
          "type": "tuple[]"
        }
      ],
      "stateMutability": "view",
      "type": "function",
      "constant": true
    },
    {
      "inputs": [
        {
          "internalType": "address payable",
          "name": "newOnwer",
          "type": "address"
        },
        {
          "internalType": "address payable",
          "name": "currentOwner",
          "type": "address"
        },
        {
          "internalType": "uint256",
          "name": "id",
          "type": "uint256"
        }
      ],
      "name": "transferOwnerShip",
      "outputs": [],
      "stateMutability": "nonpayable",
      "type": "function"
    },
    {
      "inputs": [
        {
          "internalType": "uint256",
          "name": "id",
          "type": "uint256"
        }
      ],
      "name": "deleteToken",
      "outputs": [],
      "stateMutability": "nonpayable",
      "type": "function"
    },
    {
      "inputs": [
        {
          "internalType": "uint256",
          "name": "id",
          "type": "uint256"
        }
      ],
      "name": "verifyProduct",
      "outputs": [],
      "stateMutability": "nonpayable",
      "type": "function"
    }
  ],
  "bytecode": "0x60806040526103e86008553480156200001757600080fd5b506040518060400160405280600481526020017f4974656d000000000000000000000000000000000000000000000000000000008152506040518060400160405280600481526020017f4954454d0000000000000000000000000000000000000000000000000000000081525081600090805190602001906200009c929190620000ff565b508060019080519060200190620000b5929190620000ff565b50505033600660006101000a81548173ffffffffffffffffffffffffffffffffffffffff021916908373ffffffffffffffffffffffffffffffffffffffff16021790555062000214565b8280546200010d90620001af565b90600052602060002090601f0160209004810192826200013157600085556200017d565b82601f106200014c57805160ff19168380011785556200017d565b828001600101855582156200017d579182015b828111156200017c5782518255916020019190600101906200015f565b5b5090506200018c919062000190565b5090565b5b80821115620001ab57600081600090555060010162000191565b5090565b60006002820490506001821680620001c857607f821691505b60208210811415620001df57620001de620001e5565b5b50919050565b7f4e487b7100000000000000000000000000000000000000000000000000000000600052602260045260246000fd5b614f1680620002246000396000f3fe608060405234801561001057600080fd5b506004361061014d5760003560e01c806370a08231116100c3578063bcae34f81161007c578063bcae34f814610398578063c8062dc5146103b4578063c87b56dd146103e4578063cc5a115c14610414578063e985e9c51461044a578063f291350d1461047a5761014d565b806370a08231146102d8578063893d20e81461030857806395d89b4114610326578063a22cb46514610344578063b390890914610360578063b88d4fde1461037c5761014d565b806323b872dd1161011557806323b872dd1461020857806342842e0e146102245780634d73665514610240578063524e8462146102705780636297c16c1461028c5780636352211e146102a85761014d565b806301ffc9a714610152578063063d93d81461018257806306fdde031461019e578063081812fc146101bc578063095ea7b3146101ec575b600080fd5b61016c60048036038101906101679190613847565b6104af565b60405161017991906140e2565b60405180910390f35b61019c600480360381019061019791906135f6565b610591565b005b6101a6610946565b6040516101b391906140fd565b60405180910390f35b6101d660048036038101906101d1919061395c565b6109d8565b6040516101e39190613fb5565b60405180910390f35b61020660048036038101906102019190613807565b610a5d565b005b610222600480360381019061021d91906136f1565b610b75565b005b61023e600480360381019061023991906136f1565b610bd5565b005b61025a60048036038101906102559190613549565b610bf5565b60405161026791906140c0565b60405180910390f35b61028a6004803603810190610285919061395c565b610f8e565b005b6102a660048036038101906102a1919061395c565b61136f565b005b6102c260048036038101906102bd919061395c565b6117e1565b6040516102cf9190613fb5565b60405180910390f35b6102f260048036038101906102ed9190613549565b611893565b6040516102ff91906143bf565b60405180910390f35b61031061194b565b60405161031d9190613fb5565b60405180910390f35b61032e611975565b60405161033b91906140fd565b60405180910390f35b61035e600480360381019061035991906137c7565b611a07565b005b61037a600480360381019061037591906138a1565b611b88565b005b61039660048036038101906103919190613744565b611da5565b005b6103b260048036038101906103ad91906135a3565b611e07565b005b6103ce60048036038101906103c99190613576565b611fc7565b6040516103db91906140e2565b60405180910390f35b6103fe60048036038101906103f9919061395c565b61211d565b60405161040b91906140fd565b60405180910390f35b61042e60048036038101906104299190613807565b6121c4565b60405161044197969594939291906143da565b60405180910390f35b610464600480360381019061045f91906136b1565b612340565b60405161047191906140e2565b60405180910390f35b610494600480360381019061048f9190613549565b6123d4565b6040516104a696959493929190613fd0565b60405180910390f35b60007f80ac58cd000000000000000000000000000000000000000000000000000000007bffffffffffffffffffffffffffffffffffffffffffffffffffffffff1916827bffffffffffffffffffffffffffffffffffffffffffffffffffffffff1916148061057a57507f5b5e139f000000000000000000000000000000000000000000000000000000007bffffffffffffffffffffffffffffffffffffffffffffffffffffffff1916827bffffffffffffffffffffffffffffffffffffffffffffffffffffffff1916145b8061058a5750610589826125d5565b5b9050919050565b33600660009054906101000a900473ffffffffffffffffffffffffffffffffffffffff1673ffffffffffffffffffffffffffffffffffffffff168173ffffffffffffffffffffffffffffffffffffffff161415610623576040517f08c379a000000000000000000000000000000000000000000000000000000000815260040161061a9061421f565b60405180910390fd5b60001515600760008373ffffffffffffffffffffffffffffffffffffffff1673ffffffffffffffffffffffffffffffffffffffff16815260200190815260200160002060000160149054906101000a900460ff161515146106b9576040517f08c379a00000000000000000000000000000000000000000000000000000000081526004016106b0906141df565b60405180910390fd5b3373ffffffffffffffffffffffffffffffffffffffff168573ffffffffffffffffffffffffffffffffffffffff1614610727576040517f08c379a000000000000000000000000000000000000000000000000000000000815260040161071e9061413f565b60405180910390fd5b83600760008773ffffffffffffffffffffffffffffffffffffffff1673ffffffffffffffffffffffffffffffffffffffff168152602001908152602001600020600101908051906020019061077d929190613181565b5082600760008773ffffffffffffffffffffffffffffffffffffffff1673ffffffffffffffffffffffffffffffffffffffff16815260200190815260200160002060020190805190602001906107d4929190613181565b5084600760008773ffffffffffffffffffffffffffffffffffffffff1673ffffffffffffffffffffffffffffffffffffffff16815260200190815260200160002060000160006101000a81548173ffffffffffffffffffffffffffffffffffffffff021916908373ffffffffffffffffffffffffffffffffffffffff1602179055506001600760008773ffffffffffffffffffffffffffffffffffffffff1673ffffffffffffffffffffffffffffffffffffffff16815260200190815260200160002060000160146101000a81548160ff02191690831515021790555081600760008773ffffffffffffffffffffffffffffffffffffffff1673ffffffffffffffffffffffffffffffffffffffff1681526020019081526020016000206004019080519060200190610907929190613181565b507fb3eccf73f39b1c07947c780b2b39df2a1bb058b4037b0a42d0881ca1a028a132856040516109379190614046565b60405180910390a15050505050565b60606000805461095590614753565b80601f016020809104026020016040519081016040528092919081815260200182805461098190614753565b80156109ce5780601f106109a3576101008083540402835291602001916109ce565b820191906000526020600020905b8154815290600101906020018083116109b157829003601f168201915b5050505050905090565b60006109e38261263f565b610a22576040517f08c379a0000000000000000000000000000000000000000000000000000000008152600401610a19906142df565b60405180910390fd5b6004600083815260200190815260200160002060009054906101000a900473ffffffffffffffffffffffffffffffffffffffff169050919050565b6000610a68826117e1565b90508073ffffffffffffffffffffffffffffffffffffffff168373ffffffffffffffffffffffffffffffffffffffff161415610ad9576040517f08c379a0000000000000000000000000000000000000000000000000000000008152600401610ad09061433f565b60405180910390fd5b8073ffffffffffffffffffffffffffffffffffffffff16610af86126ab565b73ffffffffffffffffffffffffffffffffffffffff161480610b275750610b2681610b216126ab565b612340565b5b610b66576040517f08c379a0000000000000000000000000000000000000000000000000000000008152600401610b5d9061423f565b60405180910390fd5b610b7083836126b3565b505050565b610b86610b806126ab565b8261276c565b610bc5576040517f08c379a0000000000000000000000000000000000000000000000000000000008152600401610bbc9061435f565b60405180910390fd5b610bd083838361284a565b505050565b610bf083838360405180602001604052806000815250611da5565b505050565b60606000600960008473ffffffffffffffffffffffffffffffffffffffff1673ffffffffffffffffffffffffffffffffffffffff16815260200190815260200160002080549050905060008167ffffffffffffffff811115610c5a57610c596148ec565b5b604051908082528060200260200182016040528015610c9357816020015b610c80613207565b815260200190600190039081610c785790505b50905060005b82811015610f83576000600960008773ffffffffffffffffffffffffffffffffffffffff1673ffffffffffffffffffffffffffffffffffffffff1681526020019081526020016000208281548110610cf457610cf36148bd565b5b90600052602060002090600802016040518061010001604052908160008201548152602001600182018054610d2890614753565b80601f0160208091040260200160405190810160405280929190818152602001828054610d5490614753565b8015610da15780601f10610d7657610100808354040283529160200191610da1565b820191906000526020600020905b815481529060010190602001808311610d8457829003601f168201915b50505050508152602001600282018054610dba90614753565b80601f0160208091040260200160405190810160405280929190818152602001828054610de690614753565b8015610e335780601f10610e0857610100808354040283529160200191610e33565b820191906000526020600020905b815481529060010190602001808311610e1657829003601f168201915b50505050508152602001600382015481526020016004820160009054906101000a900460ff1615151515815260200160058201805480602002602001604051908101604052809291908181526020016000905b82821015610f32578382906000526020600020018054610ea590614753565b80601f0160208091040260200160405190810160405280929190818152602001828054610ed190614753565b8015610f1e5780601f10610ef357610100808354040283529160200191610f1e565b820191906000526020600020905b815481529060010190602001808311610f0157829003601f168201915b505050505081526020019060010190610e86565b50505050815260200160068201548152602001600782015481525050905080838381518110610f6457610f636148bd565b5b6020026020010181905250508080610f7b906147b6565b915050610c99565b508092505050919050565b610f97816117e1565b73ffffffffffffffffffffffffffffffffffffffff163373ffffffffffffffffffffffffffffffffffffffff161415610fcf57600080fd5b6000600960003373ffffffffffffffffffffffffffffffffffffffff1673ffffffffffffffffffffffffffffffffffffffff168152602001908152602001600020805480602002602001604051908101604052809291908181526020016000905b828210156112a35783829060005260206000209060080201604051806101000160405290816000820154815260200160018201805461106e90614753565b80601f016020809104026020016040519081016040528092919081815260200182805461109a90614753565b80156110e75780601f106110bc576101008083540402835291602001916110e7565b820191906000526020600020905b8154815290600101906020018083116110ca57829003601f168201915b5050505050815260200160028201805461110090614753565b80601f016020809104026020016040519081016040528092919081815260200182805461112c90614753565b80156111795780601f1061114e57610100808354040283529160200191611179565b820191906000526020600020905b81548152906001019060200180831161115c57829003601f168201915b50505050508152602001600382015481526020016004820160009054906101000a900460ff1615151515815260200160058201805480602002602001604051908101604052809291908181526020016000905b828210156112785783829060005260206000200180546111eb90614753565b80601f016020809104026020016040519081016040528092919081815260200182805461121790614753565b80156112645780601f1061123957610100808354040283529160200191611264565b820191906000526020600020905b81548152906001019060200180831161124757829003601f168201915b5050505050815260200190600101906111cc565b5050505081526020016006820154815260200160078201548152505081526020019060010190611030565b50505050905060005b815181101561136a57828282815181106112c9576112c86148bd565b5b6020026020010151600001511415611357576001600960003373ffffffffffffffffffffffffffffffffffffffff1673ffffffffffffffffffffffffffffffffffffffff168152602001908152602001600020828154811061132e5761132d6148bd565b5b906000526020600020906008020160040160006101000a81548160ff0219169083151502179055505b8080611362906147b6565b9150506112ac565b505050565b611378816117e1565b73ffffffffffffffffffffffffffffffffffffffff163373ffffffffffffffffffffffffffffffffffffffff16146113e5576040517f08c379a00000000000000000000000000000000000000000000000000000000081526004016113dc9061439f565b60405180910390fd5b60003390506113f2613207565b60005b600960008473ffffffffffffffffffffffffffffffffffffffff1673ffffffffffffffffffffffffffffffffffffffff168152602001908152602001600020805490508110156117d25783600960008573ffffffffffffffffffffffffffffffffffffffff1673ffffffffffffffffffffffffffffffffffffffff1681526020019081526020016000208281548110611491576114906148bd565b5b90600052602060002090600802016000015414156117bf576001600960008573ffffffffffffffffffffffffffffffffffffffff1673ffffffffffffffffffffffffffffffffffffffff16815260200190815260200160002082815481106114fc576114fb6148bd565b5b906000526020600020906008020160060181905550600960008473ffffffffffffffffffffffffffffffffffffffff1673ffffffffffffffffffffffffffffffffffffffff1681526020019081526020016000208181548110611562576115616148bd565b5b9060005260206000209060080201604051806101000160405290816000820154815260200160018201805461159690614753565b80601f01602080910402602001604051908101604052809291908181526020018280546115c290614753565b801561160f5780601f106115e45761010080835404028352916020019161160f565b820191906000526020600020905b8154815290600101906020018083116115f257829003601f168201915b5050505050815260200160028201805461162890614753565b80601f016020809104026020016040519081016040528092919081815260200182805461165490614753565b80156116a15780601f10611676576101008083540402835291602001916116a1565b820191906000526020600020905b81548152906001019060200180831161168457829003601f168201915b50505050508152602001600382015481526020016004820160009054906101000a900460ff1615151515815260200160058201805480602002602001604051908101604052809291908181526020016000905b828210156117a057838290600052602060002001805461171390614753565b80601f016020809104026020016040519081016040528092919081815260200182805461173f90614753565b801561178c5780601f106117615761010080835404028352916020019161178c565b820191906000526020600020905b81548152906001019060200180831161176f57829003601f168201915b5050505050815260200190600101906116f4565b5050505081526020016006820154815260200160078201548152505091505b80806117ca906147b6565b9150506113f5565b506117dc83612aa6565b505050565b6000806002600084815260200190815260200160002060009054906101000a900473ffffffffffffffffffffffffffffffffffffffff169050600073ffffffffffffffffffffffffffffffffffffffff168173ffffffffffffffffffffffffffffffffffffffff16141561188a576040517f08c379a00000000000000000000000000000000000000000000000000000000081526004016118819061427f565b60405180910390fd5b80915050919050565b60008073ffffffffffffffffffffffffffffffffffffffff168273ffffffffffffffffffffffffffffffffffffffff161415611904576040517f08c379a00000000000000000000000000000000000000000000000000000000081526004016118fb9061425f565b60405180910390fd5b600360008373ffffffffffffffffffffffffffffffffffffffff1673ffffffffffffffffffffffffffffffffffffffff168152602001908152602001600020549050919050565b6000600660009054906101000a900473ffffffffffffffffffffffffffffffffffffffff16905090565b60606001805461198490614753565b80601f01602080910402602001604051908101604052809291908181526020018280546119b090614753565b80156119fd5780601f106119d2576101008083540402835291602001916119fd565b820191906000526020600020905b8154815290600101906020018083116119e057829003601f168201915b5050505050905090565b611a0f6126ab565b73ffffffffffffffffffffffffffffffffffffffff168273ffffffffffffffffffffffffffffffffffffffff161415611a7d576040517f08c379a0000000000000000000000000000000000000000000000000000000008152600401611a74906141bf565b60405180910390fd5b8060056000611a8a6126ab565b73ffffffffffffffffffffffffffffffffffffffff1673ffffffffffffffffffffffffffffffffffffffff16815260200190815260200160002060008473ffffffffffffffffffffffffffffffffffffffff1673ffffffffffffffffffffffffffffffffffffffff16815260200190815260200160002060006101000a81548160ff0219169083151502179055508173ffffffffffffffffffffffffffffffffffffffff16611b376126ab565b73ffffffffffffffffffffffffffffffffffffffff167f17307eab39ab6107e8899845ad3d59bd9653f200f220920489ca2b5937696c3183604051611b7c91906140e2565b60405180910390a35050565b60011515600760003373ffffffffffffffffffffffffffffffffffffffff1673ffffffffffffffffffffffffffffffffffffffff16815260200190815260200160002060000160149054906101000a900460ff16151514611c1e576040517f08c379a0000000000000000000000000000000000000000000000000000000008152600401611c15906142bf565b60405180910390fd5b60006001600854611c2f91906145d0565b905060006040518061010001604052808381526020018781526020018681526020014281526020016001151581526020018581526020016000815260200160008152509050600960008473ffffffffffffffffffffffffffffffffffffffff1673ffffffffffffffffffffffffffffffffffffffff168152602001908152602001600020819080600181540180825580915050600190039060005260206000209060080201600090919091909150600082015181600001556020820151816001019080519060200190611d03929190613181565b506040820151816002019080519060200190611d20929190613181565b506060820151816003015560808201518160040160006101000a81548160ff02191690831515021790555060a0820151816005019080519060200190611d6792919061324e565b5060c0820151816006015560e082015181600701555050611d888383612bb7565b6001600854611d9791906145d0565b600881905550505050505050565b611db6611db06126ab565b8361276c565b611df5576040517f08c379a0000000000000000000000000000000000000000000000000000000008152600401611dec9061435f565b60405180910390fd5b611e0184848484612bd5565b50505050565b611e10816117e1565b73ffffffffffffffffffffffffffffffffffffffff163373ffffffffffffffffffffffffffffffffffffffff1614611e7d576040517f08c379a0000000000000000000000000000000000000000000000000000000008152600401611e749061439f565b60405180910390fd5b600033905060005b600960008373ffffffffffffffffffffffffffffffffffffffff1673ffffffffffffffffffffffffffffffffffffffff16815260200190815260200160002080549050811015611fb55782600960008473ffffffffffffffffffffffffffffffffffffffff1673ffffffffffffffffffffffffffffffffffffffff1681526020019081526020016000208281548110611f2157611f206148bd565b5b9060005260206000209060080201600001541415611fa2576001600960008473ffffffffffffffffffffffffffffffffffffffff1673ffffffffffffffffffffffffffffffffffffffff1681526020019081526020016000208281548110611f8c57611f8b6148bd565b5b9060005260206000209060080201600701819055505b8080611fad906147b6565b915050611e85565b50611fc1838584610bd5565b50505050565b60003373ffffffffffffffffffffffffffffffffffffffff168273ffffffffffffffffffffffffffffffffffffffff1614612037576040517f08c379a000000000000000000000000000000000000000000000000000000000815260040161202e9061417f565b60405180910390fd5b60011515600760003373ffffffffffffffffffffffffffffffffffffffff1673ffffffffffffffffffffffffffffffffffffffff16815260200190815260200160002060000160149054906101000a900460ff161515146120cd576040517f08c379a00000000000000000000000000000000000000000000000000000000081526004016120c49061437f565b60405180910390fd5b42600760003373ffffffffffffffffffffffffffffffffffffffff1673ffffffffffffffffffffffffffffffffffffffff1681526020019081526020016000206003018190555060019050919050565b60606121288261263f565b612167576040517f08c379a000000000000000000000000000000000000000000000000000000000815260040161215e9061431f565b60405180910390fd5b6000612171612c31565b9050600081511161219157604051806020016040528060008152506121bc565b8061219b84612c48565b6040516020016121ac929190613f91565b6040516020818303038152906040525b915050919050565b600960205281600052604060002081815481106121e057600080fd5b90600052602060002090600802016000915091505080600001549080600101805461220a90614753565b80601f016020809104026020016040519081016040528092919081815260200182805461223690614753565b80156122835780601f1061225857610100808354040283529160200191612283565b820191906000526020600020905b81548152906001019060200180831161226657829003601f168201915b50505050509080600201805461229890614753565b80601f01602080910402602001604051908101604052809291908181526020018280546122c490614753565b80156123115780601f106122e657610100808354040283529160200191612311565b820191906000526020600020905b8154815290600101906020018083116122f457829003601f168201915b5050505050908060030154908060040160009054906101000a900460ff16908060060154908060070154905087565b6000600560008473ffffffffffffffffffffffffffffffffffffffff1673ffffffffffffffffffffffffffffffffffffffff16815260200190815260200160002060008373ffffffffffffffffffffffffffffffffffffffff1673ffffffffffffffffffffffffffffffffffffffff16815260200190815260200160002060009054906101000a900460ff16905092915050565b60076020528060005260406000206000915090508060000160009054906101000a900473ffffffffffffffffffffffffffffffffffffffff16908060000160149054906101000a900460ff169080600101805461243090614753565b80601f016020809104026020016040519081016040528092919081815260200182805461245c90614753565b80156124a95780601f1061247e576101008083540402835291602001916124a9565b820191906000526020600020905b81548152906001019060200180831161248c57829003601f168201915b5050505050908060020180546124be90614753565b80601f01602080910402602001604051908101604052809291908181526020018280546124ea90614753565b80156125375780601f1061250c57610100808354040283529160200191612537565b820191906000526020600020905b81548152906001019060200180831161251a57829003601f168201915b50505050509080600301549080600401805461255290614753565b80601f016020809104026020016040519081016040528092919081815260200182805461257e90614753565b80156125cb5780601f106125a0576101008083540402835291602001916125cb565b820191906000526020600020905b8154815290600101906020018083116125ae57829003601f168201915b5050505050905086565b60007f01ffc9a7000000000000000000000000000000000000000000000000000000007bffffffffffffffffffffffffffffffffffffffffffffffffffffffff1916827bffffffffffffffffffffffffffffffffffffffffffffffffffffffff1916149050919050565b60008073ffffffffffffffffffffffffffffffffffffffff166002600084815260200190815260200160002060009054906101000a900473ffffffffffffffffffffffffffffffffffffffff1673ffffffffffffffffffffffffffffffffffffffff1614159050919050565b600033905090565b816004600083815260200190815260200160002060006101000a81548173ffffffffffffffffffffffffffffffffffffffff021916908373ffffffffffffffffffffffffffffffffffffffff160217905550808273ffffffffffffffffffffffffffffffffffffffff16612726836117e1565b73ffffffffffffffffffffffffffffffffffffffff167f8c5be1e5ebec7d5bd14f71427d1e84f3dd0314c0f7b2291e5b200ac8c7c3b92560405160405180910390a45050565b60006127778261263f565b6127b6576040517f08c379a00000000000000000000000000000000000000000000000000000000081526004016127ad906141ff565b60405180910390fd5b60006127c1836117e1565b90508073ffffffffffffffffffffffffffffffffffffffff168473ffffffffffffffffffffffffffffffffffffffff16148061283057508373ffffffffffffffffffffffffffffffffffffffff16612818846109d8565b73ffffffffffffffffffffffffffffffffffffffff16145b8061284157506128408185612340565b5b91505092915050565b8273ffffffffffffffffffffffffffffffffffffffff1661286a826117e1565b73ffffffffffffffffffffffffffffffffffffffff16146128c0576040517f08c379a00000000000000000000000000000000000000000000000000000000081526004016128b7906142ff565b60405180910390fd5b600073ffffffffffffffffffffffffffffffffffffffff168273ffffffffffffffffffffffffffffffffffffffff161415612930576040517f08c379a00000000000000000000000000000000000000000000000000000000081526004016129279061419f565b60405180910390fd5b61293b838383612da9565b6129466000826126b3565b6001600360008573ffffffffffffffffffffffffffffffffffffffff1673ffffffffffffffffffffffffffffffffffffffff16815260200190815260200160002060008282546129969190614657565b925050819055506001600360008473ffffffffffffffffffffffffffffffffffffffff1673ffffffffffffffffffffffffffffffffffffffff16815260200190815260200160002060008282546129ed91906145d0565b92505081905550816002600083815260200190815260200160002060006101000a81548173ffffffffffffffffffffffffffffffffffffffff021916908373ffffffffffffffffffffffffffffffffffffffff160217905550808273ffffffffffffffffffffffffffffffffffffffff168473ffffffffffffffffffffffffffffffffffffffff167fddf252ad1be2c89b69c2b068fc378daa952ba7f163c4a11628f55a4df523b3ef60405160405180910390a4505050565b6000612ab1826117e1565b9050612abf81600084612da9565b612aca6000836126b3565b6001600360008373ffffffffffffffffffffffffffffffffffffffff1673ffffffffffffffffffffffffffffffffffffffff1681526020019081526020016000206000828254612b1a9190614657565b925050819055506002600083815260200190815260200160002060006101000a81549073ffffffffffffffffffffffffffffffffffffffff021916905581600073ffffffffffffffffffffffffffffffffffffffff168273ffffffffffffffffffffffffffffffffffffffff167fddf252ad1be2c89b69c2b068fc378daa952ba7f163c4a11628f55a4df523b3ef60405160405180910390a45050565b612bd1828260405180602001604052806000815250612dae565b5050565b612be084848461284a565b612bec84848484612e09565b612c2b576040517f08c379a0000000000000000000000000000000000000000000000000000000008152600401612c229061411f565b60405180910390fd5b50505050565b606060405180602001604052806000815250905090565b60606000821415612c90576040518060400160405280600181526020017f30000000000000000000000000000000000000000000000000000000000000008152509050612da4565b600082905060005b60008214612cc2578080612cab906147b6565b915050600a82612cbb9190614626565b9150612c98565b60008167ffffffffffffffff811115612cde57612cdd6148ec565b5b6040519080825280601f01601f191660200182016040528015612d105781602001600182028036833780820191505090505b5090505b60008514612d9d57600182612d299190614657565b9150600a85612d3891906147ff565b6030612d4491906145d0565b60f81b818381518110612d5a57612d596148bd565b5b60200101907effffffffffffffffffffffffffffffffffffffffffffffffffffffffffffff1916908160001a905350600a85612d969190614626565b9450612d14565b8093505050505b919050565b505050565b612db88383612fa0565b612dc56000848484612e09565b612e04576040517f08c379a0000000000000000000000000000000000000000000000000000000008152600401612dfb9061411f565b60405180910390fd5b505050565b6000612e2a8473ffffffffffffffffffffffffffffffffffffffff1661316e565b15612f93578373ffffffffffffffffffffffffffffffffffffffff1663150b7a02612e536126ab565b8786866040518563ffffffff1660e01b8152600401612e759493929190614074565b602060405180830381600087803b158015612e8f57600080fd5b505af1925050508015612ec057506040513d601f19601f82011682018060405250810190612ebd9190613874565b60015b612f43573d8060008114612ef0576040519150601f19603f3d011682016040523d82523d6000602084013e612ef5565b606091505b50600081511415612f3b576040517f08c379a0000000000000000000000000000000000000000000000000000000008152600401612f329061411f565b60405180910390fd5b805181602001fd5b63150b7a0260e01b7bffffffffffffffffffffffffffffffffffffffffffffffffffffffff1916817bffffffffffffffffffffffffffffffffffffffffffffffffffffffff191614915050612f98565b600190505b949350505050565b600073ffffffffffffffffffffffffffffffffffffffff168273ffffffffffffffffffffffffffffffffffffffff161415613010576040517f08c379a00000000000000000000000000000000000000000000000000000000081526004016130079061429f565b60405180910390fd5b6130198161263f565b15613059576040517f08c379a00000000000000000000000000000000000000000000000000000000081526004016130509061415f565b60405180910390fd5b61306560008383612da9565b6001600360008473ffffffffffffffffffffffffffffffffffffffff1673ffffffffffffffffffffffffffffffffffffffff16815260200190815260200160002060008282546130b591906145d0565b92505081905550816002600083815260200190815260200160002060006101000a81548173ffffffffffffffffffffffffffffffffffffffff021916908373ffffffffffffffffffffffffffffffffffffffff160217905550808273ffffffffffffffffffffffffffffffffffffffff16600073ffffffffffffffffffffffffffffffffffffffff167fddf252ad1be2c89b69c2b068fc378daa952ba7f163c4a11628f55a4df523b3ef60405160405180910390a45050565b600080823b905060008111915050919050565b82805461318d90614753565b90600052602060002090601f0160209004810192826131af57600085556131f6565b82601f106131c857805160ff19168380011785556131f6565b828001600101855582156131f6579182015b828111156131f55782518255916020019190600101906131da565b5b50905061320391906132ae565b5090565b604051806101000160405280600081526020016060815260200160608152602001600081526020016000151581526020016060815260200160008152602001600081525090565b82805482825590600052602060002090810192821561329d579160200282015b8281111561329c57825182908051906020019061328c929190613181565b509160200191906001019061326e565b5b5090506132aa91906132cb565b5090565b5b808211156132c75760008160009055506001016132af565b5090565b5b808211156132eb57600081816132e291906132ef565b506001016132cc565b5090565b5080546132fb90614753565b6000825580601f1061330d575061332c565b601f01602090049060005260206000209081019061332b91906132ae565b5b50565b600061334261333d8461447c565b614457565b9050808382526020820190508285602086028201111561336557613364614920565b5b60005b858110156133b357813567ffffffffffffffff81111561338b5761338a61491b565b5b8086016133988982613506565b85526020850194506020840193505050600181019050613368565b5050509392505050565b60006133d06133cb846144a8565b614457565b9050828152602081018484840111156133ec576133eb614925565b5b6133f7848285614711565b509392505050565b600061341261340d846144d9565b614457565b90508281526020810184848401111561342e5761342d614925565b5b613439848285614711565b509392505050565b60008135905061345081614e6d565b92915050565b60008135905061346581614e84565b92915050565b600082601f8301126134805761347f61491b565b5b813561349084826020860161332f565b91505092915050565b6000813590506134a881614e9b565b92915050565b6000813590506134bd81614eb2565b92915050565b6000815190506134d281614eb2565b92915050565b600082601f8301126134ed576134ec61491b565b5b81356134fd8482602086016133bd565b91505092915050565b600082601f83011261351b5761351a61491b565b5b813561352b8482602086016133ff565b91505092915050565b60008135905061354381614ec9565b92915050565b60006020828403121561355f5761355e61492f565b5b600061356d84828501613441565b91505092915050565b60006020828403121561358c5761358b61492f565b5b600061359a84828501613456565b91505092915050565b6000806000606084860312156135bc576135bb61492f565b5b60006135ca86828701613456565b93505060206135db86828701613456565b92505060406135ec86828701613534565b9150509250925092565b600080600080608085870312156136105761360f61492f565b5b600061361e87828801613456565b945050602085013567ffffffffffffffff81111561363f5761363e61492a565b5b61364b87828801613506565b935050604085013567ffffffffffffffff81111561366c5761366b61492a565b5b61367887828801613506565b925050606085013567ffffffffffffffff8111156136995761369861492a565b5b6136a587828801613506565b91505092959194509250565b600080604083850312156136c8576136c761492f565b5b60006136d685828601613441565b92505060206136e785828601613441565b9150509250929050565b60008060006060848603121561370a5761370961492f565b5b600061371886828701613441565b935050602061372986828701613441565b925050604061373a86828701613534565b9150509250925092565b6000806000806080858703121561375e5761375d61492f565b5b600061376c87828801613441565b945050602061377d87828801613441565b935050604061378e87828801613534565b925050606085013567ffffffffffffffff8111156137af576137ae61492a565b5b6137bb878288016134d8565b91505092959194509250565b600080604083850312156137de576137dd61492f565b5b60006137ec85828601613441565b92505060206137fd85828601613499565b9150509250929050565b6000806040838503121561381e5761381d61492f565b5b600061382c85828601613441565b925050602061383d85828601613534565b9150509250929050565b60006020828403121561385d5761385c61492f565b5b600061386b848285016134ae565b91505092915050565b60006020828403121561388a5761388961492f565b5b6000613898848285016134c3565b91505092915050565b600080600080608085870312156138bb576138ba61492f565b5b600085013567ffffffffffffffff8111156138d9576138d861492a565b5b6138e587828801613506565b945050602085013567ffffffffffffffff8111156139065761390561492a565b5b61391287828801613506565b935050604085013567ffffffffffffffff8111156139335761393261492a565b5b61393f8782880161346b565b925050606061395087828801613456565b91505092959194509250565b6000602082840312156139725761397161492f565b5b600061398084828501613534565b91505092915050565b60006139958383613b10565b905092915050565b60006139a98383613eb5565b905092915050565b6139ba8161469d565b82525050565b6139c98161468b565b82525050565b60006139da8261452a565b6139e48185614570565b9350836020820285016139f68561450a565b8060005b85811015613a325784840389528151613a138582613989565b9450613a1e83614556565b925060208a019950506001810190506139fa565b50829750879550505050505092915050565b6000613a4f82614535565b613a598185614581565b935083602082028501613a6b8561451a565b8060005b85811015613aa75784840389528151613a88858261399d565b9450613a9383614563565b925060208a01995050600181019050613a6f565b50829750879550505050505092915050565b613ac2816146af565b82525050565b613ad1816146af565b82525050565b6000613ae282614540565b613aec8185614592565b9350613afc818560208601614720565b613b0581614934565b840191505092915050565b6000613b1b8261454b565b613b2581856145a3565b9350613b35818560208601614720565b613b3e81614934565b840191505092915050565b6000613b548261454b565b613b5e81856145b4565b9350613b6e818560208601614720565b613b7781614934565b840191505092915050565b6000613b8d8261454b565b613b9781856145c5565b9350613ba7818560208601614720565b80840191505092915050565b6000613bc06032836145b4565b9150613bcb82614945565b604082019050919050565b6000613be3601c836145b4565b9150613bee82614994565b602082019050919050565b6000613c06601c836145b4565b9150613c11826149bd565b602082019050919050565b6000613c296019836145b4565b9150613c34826149e6565b602082019050919050565b6000613c4c6024836145b4565b9150613c5782614a0f565b604082019050919050565b6000613c6f6019836145b4565b9150613c7a82614a5e565b602082019050919050565b6000613c926012836145b4565b9150613c9d82614a87565b602082019050919050565b6000613cb5602c836145b4565b9150613cc082614ab0565b604082019050919050565b6000613cd8601f836145b4565b9150613ce382614aff565b602082019050919050565b6000613cfb6017836145b4565b9150613d0682614b28565b602082019050919050565b6000613d1e6038836145b4565b9150613d2982614b51565b604082019050919050565b6000613d41602a836145b4565b9150613d4c82614ba0565b604082019050919050565b6000613d646029836145b4565b9150613d6f82614bef565b604082019050919050565b6000613d876020836145b4565b9150613d9282614c3e565b602082019050919050565b6000613daa6015836145b4565b9150613db582614c67565b602082019050919050565b6000613dcd602c836145b4565b9150613dd882614c90565b604082019050919050565b6000613df06029836145b4565b9150613dfb82614cdf565b604082019050919050565b6000613e13602f836145b4565b9150613e1e82614d2e565b604082019050919050565b6000613e366021836145b4565b9150613e4182614d7d565b604082019050919050565b6000613e596031836145b4565b9150613e6482614dcc565b604082019050919050565b6000613e7c6016836145b4565b9150613e8782614e1b565b602082019050919050565b6000613e9f6011836145b4565b9150613eaa82614e44565b602082019050919050565b600061010083016000830151613ece6000860182613f73565b5060208301518482036020860152613ee68282613b10565b91505060408301518482036040860152613f008282613b10565b9150506060830151613f156060860182613f73565b506080830151613f286080860182613ab9565b5060a083015184820360a0860152613f4082826139cf565b91505060c0830151613f5560c0860182613f73565b5060e0830151613f6860e0860182613f73565b508091505092915050565b613f7c81614707565b82525050565b613f8b81614707565b82525050565b6000613f9d8285613b82565b9150613fa98284613b82565b91508190509392505050565b6000602082019050613fca60008301846139c0565b92915050565b600060c082019050613fe560008301896139b1565b613ff26020830188613ac8565b81810360408301526140048187613b49565b905081810360608301526140188186613b49565b90506140276080830185613f82565b81810360a08301526140398184613b49565b9050979650505050505050565b600060408201905061405b60008301846139b1565b818103602083015261406c81613cee565b905092915050565b600060808201905061408960008301876139c0565b61409660208301866139c0565b6140a36040830185613f82565b81810360608301526140b58184613ad7565b905095945050505050565b600060208201905081810360008301526140da8184613a44565b905092915050565b60006020820190506140f76000830184613ac8565b92915050565b600060208201905081810360008301526141178184613b49565b905092915050565b6000602082019050818103600083015261413881613bb3565b9050919050565b6000602082019050818103600083015261415881613bd6565b9050919050565b6000602082019050818103600083015261417881613bf9565b9050919050565b6000602082019050818103600083015261419881613c1c565b9050919050565b600060208201905081810360008301526141b881613c3f565b9050919050565b600060208201905081810360008301526141d881613c62565b9050919050565b600060208201905081810360008301526141f881613c85565b9050919050565b6000602082019050818103600083015261421881613ca8565b9050919050565b6000602082019050818103600083015261423881613ccb565b9050919050565b6000602082019050818103600083015261425881613d11565b9050919050565b6000602082019050818103600083015261427881613d34565b9050919050565b6000602082019050818103600083015261429881613d57565b9050919050565b600060208201905081810360008301526142b881613d7a565b9050919050565b600060208201905081810360008301526142d881613d9d565b9050919050565b600060208201905081810360008301526142f881613dc0565b9050919050565b6000602082019050818103600083015261431881613de3565b9050919050565b6000602082019050818103600083015261433881613e06565b9050919050565b6000602082019050818103600083015261435881613e29565b9050919050565b6000602082019050818103600083015261437881613e4c565b9050919050565b6000602082019050818103600083015261439881613e6f565b9050919050565b600060208201905081810360008301526143b881613e92565b9050919050565b60006020820190506143d46000830184613f82565b92915050565b600060e0820190506143ef600083018a613f82565b81810360208301526144018189613b49565b905081810360408301526144158188613b49565b90506144246060830187613f82565b6144316080830186613ac8565b61443e60a0830185613f82565b61444b60c0830184613f82565b98975050505050505050565b6000614461614472565b905061446d8282614785565b919050565b6000604051905090565b600067ffffffffffffffff821115614497576144966148ec565b5b602082029050602081019050919050565b600067ffffffffffffffff8211156144c3576144c26148ec565b5b6144cc82614934565b9050602081019050919050565b600067ffffffffffffffff8211156144f4576144f36148ec565b5b6144fd82614934565b9050602081019050919050565b6000819050602082019050919050565b6000819050602082019050919050565b600081519050919050565b600081519050919050565b600081519050919050565b600081519050919050565b6000602082019050919050565b6000602082019050919050565b600082825260208201905092915050565b600082825260208201905092915050565b600082825260208201905092915050565b600082825260208201905092915050565b600082825260208201905092915050565b600081905092915050565b60006145db82614707565b91506145e683614707565b9250827fffffffffffffffffffffffffffffffffffffffffffffffffffffffffffffffff0382111561461b5761461a614830565b5b828201905092915050565b600061463182614707565b915061463c83614707565b92508261464c5761464b61485f565b5b828204905092915050565b600061466282614707565b915061466d83614707565b9250828210156146805761467f614830565b5b828203905092915050565b6000614696826146e7565b9050919050565b60006146a8826146e7565b9050919050565b60008115159050919050565b60007fffffffff0000000000000000000000000000000000000000000000000000000082169050919050565b600073ffffffffffffffffffffffffffffffffffffffff82169050919050565b6000819050919050565b82818337600083830152505050565b60005b8381101561473e578082015181840152602081019050614723565b8381111561474d576000848401525b50505050565b6000600282049050600182168061476b57607f821691505b6020821081141561477f5761477e61488e565b5b50919050565b61478e82614934565b810181811067ffffffffffffffff821117156147ad576147ac6148ec565b5b80604052505050565b60006147c182614707565b91507fffffffffffffffffffffffffffffffffffffffffffffffffffffffffffffffff8214156147f4576147f3614830565b5b600182019050919050565b600061480a82614707565b915061481583614707565b9250826148255761482461485f565b5b828206905092915050565b7f4e487b7100000000000000000000000000000000000000000000000000000000600052601160045260246000fd5b7f4e487b7100000000000000000000000000000000000000000000000000000000600052601260045260246000fd5b7f4e487b7100000000000000000000000000000000000000000000000000000000600052602260045260246000fd5b7f4e487b7100000000000000000000000000000000000000000000000000000000600052603260045260246000fd5b7f4e487b7100000000000000000000000000000000000000000000000000000000600052604160045260246000fd5b600080fd5b600080fd5b600080fd5b600080fd5b600080fd5b6000601f19601f8301169050919050565b7f4552433732313a207472616e7366657220746f206e6f6e20455243373231526560008201527f63656976657220696d706c656d656e7465720000000000000000000000000000602082015250565b7f43616e6e6f7420526567697374657220736f6d656f6e6520656c736500000000600082015250565b7f4552433732313a20746f6b656e20616c7265616479206d696e74656400000000600082015250565b7f43616e6e6f74206c6f67696e20736f6d656f6e6520656c736500000000000000600082015250565b7f4552433732313a207472616e7366657220746f20746865207a65726f2061646460008201527f7265737300000000000000000000000000000000000000000000000000000000602082015250565b7f4552433732313a20617070726f766520746f2063616c6c657200000000000000600082015250565b7f416c726561647920726567697374657265640000000000000000000000000000600082015250565b7f4552433732313a206f70657261746f7220717565727920666f72206e6f6e657860008201527f697374656e7420746f6b656e0000000000000000000000000000000000000000602082015250565b7f6f776e65722063616e6e6f74207265676973746572207468656d73656c662e00600082015250565b7f726567697374726174696f6e207375636365737366756c000000000000000000600082015250565b7f4552433732313a20617070726f76652063616c6c6572206973206e6f74206f7760008201527f6e6572206e6f7220617070726f76656420666f7220616c6c0000000000000000602082015250565b7f4552433732313a2062616c616e636520717565727920666f7220746865207a6560008201527f726f206164647265737300000000000000000000000000000000000000000000602082015250565b7f4552433732313a206f776e657220717565727920666f72206e6f6e657869737460008201527f656e7420746f6b656e0000000000000000000000000000000000000000000000602082015250565b7f4552433732313a206d696e7420746f20746865207a65726f2061646472657373600082015250565b7f73656e646572206e6f7420726567697374657265640000000000000000000000600082015250565b7f4552433732313a20617070726f76656420717565727920666f72206e6f6e657860008201527f697374656e7420746f6b656e0000000000000000000000000000000000000000602082015250565b7f4552433732313a207472616e73666572206f6620746f6b656e2074686174206960008201527f73206e6f74206f776e0000000000000000000000000000000000000000000000602082015250565b7f4552433732314d657461646174613a2055524920717565727920666f72206e6f60008201527f6e6578697374656e7420746f6b656e0000000000000000000000000000000000602082015250565b7f4552433732313a20617070726f76616c20746f2063757272656e74206f776e6560008201527f7200000000000000000000000000000000000000000000000000000000000000602082015250565b7f4552433732313a207472616e736665722063616c6c6572206973206e6f74206f60008201527f776e6572206e6f7220617070726f766564000000000000000000000000000000602082015250565b7f41646472657373206e6f74207265676973746572656400000000000000000000600082015250565b7f596f7520617265206e6f74206f776e6572000000000000000000000000000000600082015250565b614e768161468b565b8114614e8157600080fd5b50565b614e8d8161469d565b8114614e9857600080fd5b50565b614ea4816146af565b8114614eaf57600080fd5b50565b614ebb816146bb565b8114614ec657600080fd5b50565b614ed281614707565b8114614edd57600080fd5b5056fea2646970667358221220d8789c304fa0ca18d77d02c63ad660ce6e41e84a4aca4c1b7abce544e595352a64736f6c63430008060033",
  "immutableReferences": {},
  "source": "pragma solidity ^0.8;\r\nimport \"@openzeppelin/contracts/token/ERC721/ERC721.sol\";\r\nimport \"./Registration.sol\";\r\n\r\ncontract Product is ERC721,Registration  {\r\n    \r\n    constructor() ERC721(\"Item\",\"ITEM\"){\r\n    }\r\n    \r\n    struct Item{\r\n        uint256 key;\r\n        string name;\r\n        string designer;\r\n        uint256 registeredOn;\r\n        bool isVerified;\r\n        string[] imgHash;\r\n        uint256 isBurned;\r\n        uint256 isTransfered;\r\n    }\r\n    \r\n    uint256 count = 1000;\r\n    mapping(address=>Item[]) public productOwner;\r\n    \r\n    function mintItem(string memory name,string memory desg, string[] memory imgArr,address payable owner)public {\r\n        require(User_Record[msg.sender].isAuth == true , \"sender not registered\");\r\n        uint256 id = count+1;\r\n        Item memory i = Item({key:id,name:name,designer:desg,registeredOn:block.timestamp,isVerified:true,imgHash:imgArr,isBurned:0,isTransfered:0});\r\n        productOwner[owner].push(i);\r\n        _safeMint(owner,id);\r\n        count = count+1;\r\n    }\r\n    \r\n    function getItems(address add)public view returns(Item[] memory){\r\n        uint256 size = productOwner[add].length;\r\n        Item[] memory arr = new Item[](size);\r\n        for(uint i = 0;i<size;i++){\r\n            Item memory prod = productOwner[add][i];\r\n            arr[i] = prod;\r\n        }\r\n        return arr;\r\n    }\r\n    \r\n    function transferOwnerShip(address payable newOnwer,address payable currentOwner,uint256 id) public {\r\n        require(msg.sender == ownerOf(id),\"You are not owner\");\r\n        address add = msg.sender;\r\n        for(uint i = 0;i<productOwner[add].length;i++){\r\n            if(productOwner[add][i].key == id){\r\n                productOwner[add][i].isTransfered = 1;\r\n            }\r\n        }\r\n        safeTransferFrom(currentOwner,newOnwer,id);\r\n    }\r\n    \r\n    function deleteToken(uint256 id)public{\r\n        require(msg.sender == ownerOf(id),\"You are not owner\");\r\n        address add = msg.sender;\r\n        Item memory res;\r\n        for(uint i = 0;i<productOwner[add].length;i++){\r\n            if(productOwner[add][i].key == id){\r\n                productOwner[add][i].isBurned = 1;\r\n                res = productOwner[add][i];\r\n            }\r\n        }\r\n        _burn(id);\r\n    }\r\n    \r\n    function verifyProduct(uint256 id) public{\r\n        require(msg.sender != ownerOf(id));\r\n        Item[] memory arr = productOwner[msg.sender];\r\n        for(uint256 i = 0;i<arr.length;i++){\r\n            if(arr[i].key == id){\r\n                productOwner[msg.sender][i].isVerified = true;\r\n            }\r\n        }\r\n    }\r\n}\r\n",
  "sourcePath": "C:/Users/shreya/Documents/ds/contracts/Product.sol",
  "compiler": {
    "name": "solc",
    "version": "0.8.6+commit.11564f7e.Emscripten.clang"
  },
  "schemaVersion": "3.3.4",
  "updatedAt": "2021-08-08T18:17:31.093Z",
  "networkType": "ethereum",
  "devdoc": {
    "kind": "dev",
    "methods": {
      "approve(address,uint256)": {
        "details": "See {IERC721-approve}."
      },
      "balanceOf(address)": {
        "details": "See {IERC721-balanceOf}."
      },
      "getApproved(uint256)": {
        "details": "See {IERC721-getApproved}."
      },
      "isApprovedForAll(address,address)": {
        "details": "See {IERC721-isApprovedForAll}."
      },
      "name()": {
        "details": "See {IERC721Metadata-name}."
      },
      "ownerOf(uint256)": {
        "details": "See {IERC721-ownerOf}."
      },
      "safeTransferFrom(address,address,uint256)": {
        "details": "See {IERC721-safeTransferFrom}."
      },
      "safeTransferFrom(address,address,uint256,bytes)": {
        "details": "See {IERC721-safeTransferFrom}."
      },
      "setApprovalForAll(address,bool)": {
        "details": "See {IERC721-setApprovalForAll}."
      },
      "supportsInterface(bytes4)": {
        "details": "See {IERC165-supportsInterface}."
      },
      "symbol()": {
        "details": "See {IERC721Metadata-symbol}."
      },
      "tokenURI(uint256)": {
        "details": "See {IERC721Metadata-tokenURI}."
      },
      "transferFrom(address,address,uint256)": {
        "details": "See {IERC721-transferFrom}."
      }
    },
    "version": 1
  },
  "userdoc": {
    "kind": "user",
    "methods": {},
    "version": 1
  }
}