{
  "contractName": "Registration",
  "abi": [
    {
      "inputs": [],
      "stateMutability": "nonpayable",
      "type": "constructor"
    },
    {
      "anonymous": false,
      "inputs": [
        {
          "indexed": false,
          "internalType": "address payable",
          "name": "",
          "type": "address"
        },
        {
          "indexed": false,
          "internalType": "string",
          "name": "s",
          "type": "string"
        }
      ],
      "name": "Registered",
      "type": "event"
    },
    {
      "inputs": [
        {
          "internalType": "address",
          "name": "",
          "type": "address"
        }
      ],
      "name": "User_Record",
      "outputs": [
        {
          "internalType": "address payable",
          "name": "user_addr",
          "type": "address"
        },
        {
          "internalType": "bool",
          "name": "isAuth",
          "type": "bool"
        },
        {
          "internalType": "string",
          "name": "first_name",
          "type": "string"
        },
        {
          "internalType": "string",
          "name": "user_type",
          "type": "string"
        }
      ],
      "stateMutability": "view",
      "type": "function"
    },
    {
      "inputs": [],
      "name": "getOwner",
      "outputs": [
        {
          "internalType": "address",
          "name": "",
          "type": "address"
        }
      ],
      "stateMutability": "view",
      "type": "function"
    },
    {
      "inputs": [
        {
          "internalType": "address payable",
          "name": "sender",
          "type": "address"
        },
        {
          "internalType": "string",
          "name": "f_name",
          "type": "string"
        },
        {
          "internalType": "string",
          "name": "u_type",
          "type": "string"
        }
      ],
      "name": "register",
      "outputs": [],
      "stateMutability": "nonpayable",
      "type": "function"
    }
  ],
  "bytecode": "0x608060405234801561001057600080fd5b50336000806101000a81548173ffffffffffffffffffffffffffffffffffffffff021916908373ffffffffffffffffffffffffffffffffffffffff160217905550610c4c806100606000396000f3fe608060405234801561001057600080fd5b50600436106100415760003560e01c8063893d20e8146100465780638d59cc0214610064578063f291350d14610080575b600080fd5b61004e6100b3565b60405161005b9190610872565b60405180910390f35b61007e60048036038101906100799190610701565b6100dc565b005b61009a600480360381019061009591906106d8565b610436565b6040516100aa949392919061088d565b60405180910390f35b60008060009054906101000a900473ffffffffffffffffffffffffffffffffffffffff16905090565b3360008054906101000a900473ffffffffffffffffffffffffffffffffffffffff1673ffffffffffffffffffffffffffffffffffffffff168173ffffffffffffffffffffffffffffffffffffffff16141561016c576040517f08c379a00000000000000000000000000000000000000000000000000000000081526004016101639061094e565b60405180910390fd5b60001515600160008373ffffffffffffffffffffffffffffffffffffffff1673ffffffffffffffffffffffffffffffffffffffff16815260200190815260200160002060000160149054906101000a900460ff16151514610202576040517f08c379a00000000000000000000000000000000000000000000000000000000081526004016101f99061092e565b60405180910390fd5b3373ffffffffffffffffffffffffffffffffffffffff168473ffffffffffffffffffffffffffffffffffffffff1614610270576040517f08c379a00000000000000000000000000000000000000000000000000000000081526004016102679061090e565b60405180910390fd5b82600160008673ffffffffffffffffffffffffffffffffffffffff1673ffffffffffffffffffffffffffffffffffffffff16815260200190815260200160002060010190805190602001906102c69291906105a3565b5081600160008673ffffffffffffffffffffffffffffffffffffffff1673ffffffffffffffffffffffffffffffffffffffff168152602001908152602001600020600201908051906020019061031d9291906105a3565b5083600160008673ffffffffffffffffffffffffffffffffffffffff1673ffffffffffffffffffffffffffffffffffffffff16815260200190815260200160002060000160006101000a81548173ffffffffffffffffffffffffffffffffffffffff021916908373ffffffffffffffffffffffffffffffffffffffff16021790555060018060008673ffffffffffffffffffffffffffffffffffffffff1673ffffffffffffffffffffffffffffffffffffffff16815260200190815260200160002060000160146101000a81548160ff0219169083151502179055507fb3eccf73f39b1c07947c780b2b39df2a1bb058b4037b0a42d0881ca1a028a1328460405161042891906108e0565b60405180910390a150505050565b60016020528060005260406000206000915090508060000160009054906101000a900473ffffffffffffffffffffffffffffffffffffffff16908060000160149054906101000a900460ff169080600101805461049290610a72565b80601f01602080910402602001604051908101604052809291908181526020018280546104be90610a72565b801561050b5780601f106104e05761010080835404028352916020019161050b565b820191906000526020600020905b8154815290600101906020018083116104ee57829003601f168201915b50505050509080600201805461052090610a72565b80601f016020809104026020016040519081016040528092919081815260200182805461054c90610a72565b80156105995780601f1061056e57610100808354040283529160200191610599565b820191906000526020600020905b81548152906001019060200180831161057c57829003601f168201915b5050505050905084565b8280546105af90610a72565b90600052602060002090601f0160209004810192826105d15760008555610618565b82601f106105ea57805160ff1916838001178555610618565b82800160010185558215610618579182015b828111156106175782518255916020019190600101906105fc565b5b5090506106259190610629565b5090565b5b8082111561064257600081600090555060010161062a565b5090565b600061065961065484610993565b61096e565b90508281526020810184848401111561067157600080fd5b61067c848285610a30565b509392505050565b60008135905061069381610be8565b92915050565b6000813590506106a881610bff565b92915050565b600082601f8301126106bf57600080fd5b81356106cf848260208601610646565b91505092915050565b6000602082840312156106ea57600080fd5b60006106f884828501610684565b91505092915050565b60008060006060848603121561071657600080fd5b600061072486828701610699565b935050602084013567ffffffffffffffff81111561074157600080fd5b61074d868287016106ae565b925050604084013567ffffffffffffffff81111561076a57600080fd5b610776868287016106ae565b9150509250925092565b610789816109f2565b82525050565b610798816109e0565b82525050565b6107a781610a04565b82525050565b60006107b8826109c4565b6107c281856109cf565b93506107d2818560208601610a3f565b6107db81610b33565b840191505092915050565b60006107f3601c836109cf565b91506107fe82610b44565b602082019050919050565b60006108166012836109cf565b915061082182610b6d565b602082019050919050565b6000610839601f836109cf565b915061084482610b96565b602082019050919050565b600061085c6017836109cf565b915061086782610bbf565b602082019050919050565b6000602082019050610887600083018461078f565b92915050565b60006080820190506108a26000830187610780565b6108af602083018661079e565b81810360408301526108c181856107ad565b905081810360608301526108d581846107ad565b905095945050505050565b60006040820190506108f56000830184610780565b81810360208301526109068161084f565b905092915050565b60006020820190508181036000830152610927816107e6565b9050919050565b6000602082019050818103600083015261094781610809565b9050919050565b600060208201905081810360008301526109678161082c565b9050919050565b6000610978610989565b90506109848282610aa4565b919050565b6000604051905090565b600067ffffffffffffffff8211156109ae576109ad610b04565b5b6109b782610b33565b9050602081019050919050565b600081519050919050565b600082825260208201905092915050565b60006109eb82610a10565b9050919050565b60006109fd82610a10565b9050919050565b60008115159050919050565b600073ffffffffffffffffffffffffffffffffffffffff82169050919050565b82818337600083830152505050565b60005b83811015610a5d578082015181840152602081019050610a42565b83811115610a6c576000848401525b50505050565b60006002820490506001821680610a8a57607f821691505b60208210811415610a9e57610a9d610ad5565b5b50919050565b610aad82610b33565b810181811067ffffffffffffffff82111715610acc57610acb610b04565b5b80604052505050565b7f4e487b7100000000000000000000000000000000000000000000000000000000600052602260045260246000fd5b7f4e487b7100000000000000000000000000000000000000000000000000000000600052604160045260246000fd5b6000601f19601f8301169050919050565b7f43616e6e6f7420526567697374657220736f6d656f6e6520656c736500000000600082015250565b7f416c726561647920726567697374657265640000000000000000000000000000600082015250565b7f6f776e65722063616e6e6f74207265676973746572207468656d73656c662e00600082015250565b7f726567697374726174696f6e207375636365737366756c000000000000000000600082015250565b610bf1816109e0565b8114610bfc57600080fd5b50565b610c08816109f2565b8114610c1357600080fd5b5056fea264697066735822122001e5f85cb8f22ea0d1e8012d09fe12491aacadb59908cb2b97ad8305c9d2531264736f6c63430008040033",
  "immutableReferences": {},
  "source": "// SPDX-License-Identifier: MIT\r\npragma solidity ^0.8;\r\n\r\ncontract Registration{\r\n    address private owner;\r\n    constructor(){\r\n        owner = msg.sender;\r\n    }\r\n    \r\n    struct user{\r\n        address payable user_addr;\r\n        bool isAuth;\r\n        string first_name;\r\n        string user_type;\r\n    }\r\n    \r\n    mapping(address => user) public User_Record;\r\n    \r\n    modifier checkAlreadyRegistered(address sender){\r\n        require(sender != owner,\"owner cannot register themself.\");\r\n        require(User_Record[sender].isAuth == false,\"Already registered\");\r\n        _;\r\n    }\r\n    \r\n    event Registered(address payable,string s);\r\n\r\n    function getOwner()view public returns(address){\r\n        return owner;\r\n    }\r\n    \r\n    function register(address payable sender , string memory f_name,string memory u_type)public checkAlreadyRegistered(msg.sender) {\r\n        require(sender == msg.sender,\"Cannot Register someone else\");\r\n        User_Record[sender].first_name = f_name;\r\n        User_Record[sender].user_type = u_type;\r\n        User_Record[sender].user_addr = sender;\r\n        User_Record[sender].isAuth = true;\r\n        emit Registered(sender,\"registration successful\");\r\n    }\r\n}",
  "sourcePath": "C:/Users/shreya/Documents/ds/contracts/Registration.sol",
  "compiler": {
    "name": "solc",
    "version": "0.8.4+commit.c7e474f2.Emscripten.clang"
  },
  "schemaVersion": "3.3.4",
  "updatedAt": "2021-04-29T18:13:33.263Z",
  "devdoc": {
    "kind": "dev",
    "methods": {},
    "version": 1
  },
  "userdoc": {
    "kind": "user",
    "methods": {},
    "version": 1
  }
}