{
  "contractName": "Registration",
  "abi": [
    {
      "inputs": [],
      "stateMutability": "nonpayable",
      "type": "constructor"
    },
    {
      "anonymous": false,
      "inputs": [
        {
          "indexed": false,
          "internalType": "address payable",
          "name": "",
          "type": "address"
        },
        {
          "indexed": false,
          "internalType": "string",
          "name": "s",
          "type": "string"
        }
      ],
      "name": "Registered",
      "type": "event"
    },
    {
      "inputs": [
        {
          "internalType": "address",
          "name": "",
          "type": "address"
        }
      ],
      "name": "User_Record",
      "outputs": [
        {
          "internalType": "address payable",
          "name": "user_addr",
          "type": "address"
        },
        {
          "internalType": "bool",
          "name": "isAuth",
          "type": "bool"
        },
        {
          "internalType": "string",
          "name": "first_name",
          "type": "string"
        },
        {
          "internalType": "string",
          "name": "user_type",
          "type": "string"
        },
        {
          "internalType": "uint256",
          "name": "lastCheckinTime",
          "type": "uint256"
        },
        {
          "internalType": "string",
          "name": "profile",
          "type": "string"
        }
      ],
      "stateMutability": "view",
      "type": "function"
    },
    {
      "inputs": [],
      "name": "getOwner",
      "outputs": [
        {
          "internalType": "address",
          "name": "",
          "type": "address"
        }
      ],
      "stateMutability": "view",
      "type": "function"
    },
    {
      "inputs": [
        {
          "internalType": "address payable",
          "name": "sender",
          "type": "address"
        },
        {
          "internalType": "string",
          "name": "f_name",
          "type": "string"
        },
        {
          "internalType": "string",
          "name": "u_type",
          "type": "string"
        },
        {
          "internalType": "string",
          "name": "profile",
          "type": "string"
        }
      ],
      "name": "register",
      "outputs": [],
      "stateMutability": "nonpayable",
      "type": "function"
    },
    {
      "inputs": [
        {
          "internalType": "address payable",
          "name": "sender",
          "type": "address"
        }
      ],
      "name": "signin",
      "outputs": [
        {
          "internalType": "bool",
          "name": "",
          "type": "bool"
        }
      ],
      "stateMutability": "nonpayable",
      "type": "function"
    }
  ],
  "bytecode": "0x608060405234801561001057600080fd5b50336000806101000a81548173ffffffffffffffffffffffffffffffffffffffff021916908373ffffffffffffffffffffffffffffffffffffffff160217905550611083806100606000396000f3fe608060405234801561001057600080fd5b506004361061004c5760003560e01c8063063d93d814610051578063893d20e81461006d578063c8062dc51461008b578063f291350d146100bb575b600080fd5b61006b600480360381019061006691906109b9565b6100f0565b005b6100756104a2565b6040516100829190610bbb565b60405180910390f35b6100a560048036038101906100a0919061098c565b6104cb565b6040516100b29190610c7a565b60405180910390f35b6100d560048036038101906100d0919061095f565b610621565b6040516100e796959493929190610bd6565b60405180910390f35b3360008054906101000a900473ffffffffffffffffffffffffffffffffffffffff1673ffffffffffffffffffffffffffffffffffffffff168173ffffffffffffffffffffffffffffffffffffffff161415610180576040517f08c379a000000000000000000000000000000000000000000000000000000000815260040161017790610cf5565b60405180910390fd5b60001515600160008373ffffffffffffffffffffffffffffffffffffffff1673ffffffffffffffffffffffffffffffffffffffff16815260200190815260200160002060000160149054906101000a900460ff16151514610216576040517f08c379a000000000000000000000000000000000000000000000000000000000815260040161020d90610cd5565b60405180910390fd5b3373ffffffffffffffffffffffffffffffffffffffff168573ffffffffffffffffffffffffffffffffffffffff1614610284576040517f08c379a000000000000000000000000000000000000000000000000000000000815260040161027b90610c95565b60405180910390fd5b83600160008773ffffffffffffffffffffffffffffffffffffffff1673ffffffffffffffffffffffffffffffffffffffff16815260200190815260200160002060010190805190602001906102da929190610822565b5082600160008773ffffffffffffffffffffffffffffffffffffffff1673ffffffffffffffffffffffffffffffffffffffff1681526020019081526020016000206002019080519060200190610331929190610822565b5084600160008773ffffffffffffffffffffffffffffffffffffffff1673ffffffffffffffffffffffffffffffffffffffff16815260200190815260200160002060000160006101000a81548173ffffffffffffffffffffffffffffffffffffffff021916908373ffffffffffffffffffffffffffffffffffffffff16021790555060018060008773ffffffffffffffffffffffffffffffffffffffff1673ffffffffffffffffffffffffffffffffffffffff16815260200190815260200160002060000160146101000a81548160ff02191690831515021790555081600160008773ffffffffffffffffffffffffffffffffffffffff1673ffffffffffffffffffffffffffffffffffffffff1681526020019081526020016000206004019080519060200190610463929190610822565b507fb3eccf73f39b1c07947c780b2b39df2a1bb058b4037b0a42d0881ca1a028a132856040516104939190610c4c565b60405180910390a15050505050565b60008060009054906101000a900473ffffffffffffffffffffffffffffffffffffffff16905090565b60003373ffffffffffffffffffffffffffffffffffffffff168273ffffffffffffffffffffffffffffffffffffffff161461053b576040517f08c379a000000000000000000000000000000000000000000000000000000000815260040161053290610cb5565b60405180910390fd5b60011515600160003373ffffffffffffffffffffffffffffffffffffffff1673ffffffffffffffffffffffffffffffffffffffff16815260200190815260200160002060000160149054906101000a900460ff161515146105d1576040517f08c379a00000000000000000000000000000000000000000000000000000000081526004016105c890610d15565b60405180910390fd5b42600160003373ffffffffffffffffffffffffffffffffffffffff1673ffffffffffffffffffffffffffffffffffffffff1681526020019081526020016000206003018190555060019050919050565b60016020528060005260406000206000915090508060000160009054906101000a900473ffffffffffffffffffffffffffffffffffffffff16908060000160149054906101000a900460ff169080600101805461067d90610e43565b80601f01602080910402602001604051908101604052809291908181526020018280546106a990610e43565b80156106f65780601f106106cb576101008083540402835291602001916106f6565b820191906000526020600020905b8154815290600101906020018083116106d957829003601f168201915b50505050509080600201805461070b90610e43565b80601f016020809104026020016040519081016040528092919081815260200182805461073790610e43565b80156107845780601f1061075957610100808354040283529160200191610784565b820191906000526020600020905b81548152906001019060200180831161076757829003601f168201915b50505050509080600301549080600401805461079f90610e43565b80601f01602080910402602001604051908101604052809291908181526020018280546107cb90610e43565b80156108185780601f106107ed57610100808354040283529160200191610818565b820191906000526020600020905b8154815290600101906020018083116107fb57829003601f168201915b5050505050905086565b82805461082e90610e43565b90600052602060002090601f0160209004810192826108505760008555610897565b82601f1061086957805160ff1916838001178555610897565b82800160010185558215610897579182015b8281111561089657825182559160200191906001019061087b565b5b5090506108a491906108a8565b5090565b5b808211156108c15760008160009055506001016108a9565b5090565b60006108d86108d384610d5a565b610d35565b9050828152602081018484840111156108f4576108f3610f09565b5b6108ff848285610e01565b509392505050565b6000813590506109168161101f565b92915050565b60008135905061092b81611036565b92915050565b600082601f83011261094657610945610f04565b5b81356109568482602086016108c5565b91505092915050565b60006020828403121561097557610974610f13565b5b600061098384828501610907565b91505092915050565b6000602082840312156109a2576109a1610f13565b5b60006109b08482850161091c565b91505092915050565b600080600080608085870312156109d3576109d2610f13565b5b60006109e18782880161091c565b945050602085013567ffffffffffffffff811115610a0257610a01610f0e565b5b610a0e87828801610931565b935050604085013567ffffffffffffffff811115610a2f57610a2e610f0e565b5b610a3b87828801610931565b925050606085013567ffffffffffffffff811115610a5c57610a5b610f0e565b5b610a6887828801610931565b91505092959194509250565b610a7d81610db9565b82525050565b610a8c81610da7565b82525050565b610a9b81610dcb565b82525050565b6000610aac82610d8b565b610ab68185610d96565b9350610ac6818560208601610e10565b610acf81610f18565b840191505092915050565b6000610ae7601c83610d96565b9150610af282610f29565b602082019050919050565b6000610b0a601983610d96565b9150610b1582610f52565b602082019050919050565b6000610b2d601283610d96565b9150610b3882610f7b565b602082019050919050565b6000610b50601f83610d96565b9150610b5b82610fa4565b602082019050919050565b6000610b73601783610d96565b9150610b7e82610fcd565b602082019050919050565b6000610b96601683610d96565b9150610ba182610ff6565b602082019050919050565b610bb581610df7565b82525050565b6000602082019050610bd06000830184610a83565b92915050565b600060c082019050610beb6000830189610a74565b610bf86020830188610a92565b8181036040830152610c0a8187610aa1565b90508181036060830152610c1e8186610aa1565b9050610c2d6080830185610bac565b81810360a0830152610c3f8184610aa1565b9050979650505050505050565b6000604082019050610c616000830184610a74565b8181036020830152610c7281610b66565b905092915050565b6000602082019050610c8f6000830184610a92565b92915050565b60006020820190508181036000830152610cae81610ada565b9050919050565b60006020820190508181036000830152610cce81610afd565b9050919050565b60006020820190508181036000830152610cee81610b20565b9050919050565b60006020820190508181036000830152610d0e81610b43565b9050919050565b60006020820190508181036000830152610d2e81610b89565b9050919050565b6000610d3f610d50565b9050610d4b8282610e75565b919050565b6000604051905090565b600067ffffffffffffffff821115610d7557610d74610ed5565b5b610d7e82610f18565b9050602081019050919050565b600081519050919050565b600082825260208201905092915050565b6000610db282610dd7565b9050919050565b6000610dc482610dd7565b9050919050565b60008115159050919050565b600073ffffffffffffffffffffffffffffffffffffffff82169050919050565b6000819050919050565b82818337600083830152505050565b60005b83811015610e2e578082015181840152602081019050610e13565b83811115610e3d576000848401525b50505050565b60006002820490506001821680610e5b57607f821691505b60208210811415610e6f57610e6e610ea6565b5b50919050565b610e7e82610f18565b810181811067ffffffffffffffff82111715610e9d57610e9c610ed5565b5b80604052505050565b7f4e487b7100000000000000000000000000000000000000000000000000000000600052602260045260246000fd5b7f4e487b7100000000000000000000000000000000000000000000000000000000600052604160045260246000fd5b600080fd5b600080fd5b600080fd5b600080fd5b6000601f19601f8301169050919050565b7f43616e6e6f7420526567697374657220736f6d656f6e6520656c736500000000600082015250565b7f43616e6e6f74206c6f67696e20736f6d656f6e6520656c736500000000000000600082015250565b7f416c726561647920726567697374657265640000000000000000000000000000600082015250565b7f6f776e65722063616e6e6f74207265676973746572207468656d73656c662e00600082015250565b7f726567697374726174696f6e207375636365737366756c000000000000000000600082015250565b7f41646472657373206e6f74207265676973746572656400000000000000000000600082015250565b61102881610da7565b811461103357600080fd5b50565b61103f81610db9565b811461104a57600080fd5b5056fea26469706673582212203c93801d8b97d58ff06bfae7af104b774b42f25d9a240b4a9e228b11e996cf4c64736f6c63430008060033",
  "immutableReferences": {},
  "source": "// SPDX-License-Identifier: MIT\r\npragma solidity ^0.8;\r\n\r\ncontract Registration{\r\n    address private owner;\r\n    constructor(){\r\n        owner = msg.sender;\r\n    }\r\n    \r\n    struct user{\r\n        address payable user_addr;\r\n        bool isAuth;\r\n        string first_name;\r\n        string user_type;\r\n        uint256 lastCheckinTime;\r\n        string profile;\r\n    }\r\n    \r\n    mapping(address => user) public User_Record;\r\n    \r\n    modifier checkAlreadyRegistered(address sender){\r\n        require(sender != owner,\"owner cannot register themself.\");\r\n        require(User_Record[sender].isAuth == false,\"Already registered\");\r\n        _;\r\n    }\r\n    \r\n    event Registered(address payable,string s);\r\n\r\n    function getOwner()view public returns(address){\r\n        return owner;\r\n    }\r\n    \r\n    function register(address payable sender , string memory f_name,string memory u_type,string memory profile)public checkAlreadyRegistered(msg.sender) {\r\n        require(sender == msg.sender,\"Cannot Register someone else\");\r\n        User_Record[sender].first_name = f_name;\r\n        User_Record[sender].user_type = u_type;\r\n        User_Record[sender].user_addr = sender;\r\n        User_Record[sender].isAuth = true;\r\n        User_Record[sender].profile = profile;\r\n        emit Registered(sender,\"registration successful\");\r\n    }\r\n\r\n    function signin(address payable sender) public  returns(bool) {\r\n        require(sender == msg.sender,\"Cannot login someone else\");\r\n        require(User_Record[msg.sender].isAuth == true,\"Address not registered\");\r\n        User_Record[msg.sender].lastCheckinTime = block.timestamp;\r\n        return true;\r\n    }\r\n}",
  "sourcePath": "C:/Users/shreya/Documents/ds/contracts/Registration.sol",
  "compiler": {
    "name": "solc",
    "version": "0.8.6+commit.11564f7e.Emscripten.clang"
  },
  "schemaVersion": "3.3.4",
  "updatedAt": "2021-08-08T16:15:50.369Z",
  "devdoc": {
    "kind": "dev",
    "methods": {},
    "version": 1
  },
  "userdoc": {
    "kind": "user",
    "methods": {},
    "version": 1
  }
}