{
  "contractName": "Registration",
  "abi": [
    {
      "inputs": [],
      "stateMutability": "nonpayable",
      "type": "constructor"
    },
    {
      "anonymous": false,
      "inputs": [
        {
          "indexed": false,
          "internalType": "address payable",
          "name": "",
          "type": "address"
        },
        {
          "indexed": false,
          "internalType": "string",
          "name": "s",
          "type": "string"
        }
      ],
      "name": "Registered",
      "type": "event"
    },
    {
      "inputs": [
        {
          "internalType": "address",
          "name": "",
          "type": "address"
        }
      ],
      "name": "User_Record",
      "outputs": [
        {
          "internalType": "address payable",
          "name": "user_addr",
          "type": "address"
        },
        {
          "internalType": "bool",
          "name": "isAuth",
          "type": "bool"
        },
        {
          "internalType": "string",
          "name": "first_name",
          "type": "string"
        },
        {
          "internalType": "string",
          "name": "user_type",
          "type": "string"
        }
      ],
      "stateMutability": "view",
      "type": "function"
    },
    {
      "inputs": [],
      "name": "getOwner",
      "outputs": [
        {
          "internalType": "address",
          "name": "",
          "type": "address"
        }
      ],
      "stateMutability": "view",
      "type": "function"
    },
    {
      "inputs": [
        {
          "internalType": "address payable",
          "name": "sender",
          "type": "address"
        },
        {
          "internalType": "string",
          "name": "f_name",
          "type": "string"
        },
        {
          "internalType": "string",
          "name": "u_type",
          "type": "string"
        }
      ],
      "name": "register",
      "outputs": [],
      "stateMutability": "nonpayable",
      "type": "function"
    },
    {
      "inputs": [
        {
          "internalType": "address payable",
          "name": "sender",
          "type": "address"
        }
      ],
      "name": "signin",
      "outputs": [
        {
          "internalType": "bool",
          "name": "",
          "type": "bool"
        }
      ],
      "stateMutability": "view",
      "type": "function"
    }
  ],
  "bytecode": "0x608060405234801561001057600080fd5b50336000806101000a81548173ffffffffffffffffffffffffffffffffffffffff021916908373ffffffffffffffffffffffffffffffffffffffff160217905550610eb2806100606000396000f3fe608060405234801561001057600080fd5b506004361061004c5760003560e01c8063893d20e8146100515780638d59cc021461006f578063c8062dc51461008b578063f291350d146100bb575b600080fd5b6100596100ee565b6040516100669190610a2b565b60405180910390f35b61008960048036038101906100849190610874565b610117565b005b6100a560048036038101906100a0919061084b565b610471565b6040516100b29190610ac7565b60405180910390f35b6100d560048036038101906100d09190610822565b610580565b6040516100e59493929190610a46565b60405180910390f35b60008060009054906101000a900473ffffffffffffffffffffffffffffffffffffffff16905090565b3360008054906101000a900473ffffffffffffffffffffffffffffffffffffffff1673ffffffffffffffffffffffffffffffffffffffff168173ffffffffffffffffffffffffffffffffffffffff1614156101a7576040517f08c379a000000000000000000000000000000000000000000000000000000000815260040161019e90610b42565b60405180910390fd5b60001515600160008373ffffffffffffffffffffffffffffffffffffffff1673ffffffffffffffffffffffffffffffffffffffff16815260200190815260200160002060000160149054906101000a900460ff1615151461023d576040517f08c379a000000000000000000000000000000000000000000000000000000000815260040161023490610b22565b60405180910390fd5b3373ffffffffffffffffffffffffffffffffffffffff168473ffffffffffffffffffffffffffffffffffffffff16146102ab576040517f08c379a00000000000000000000000000000000000000000000000000000000081526004016102a290610ae2565b60405180910390fd5b82600160008673ffffffffffffffffffffffffffffffffffffffff1673ffffffffffffffffffffffffffffffffffffffff16815260200190815260200160002060010190805190602001906103019291906106ed565b5081600160008673ffffffffffffffffffffffffffffffffffffffff1673ffffffffffffffffffffffffffffffffffffffff16815260200190815260200160002060020190805190602001906103589291906106ed565b5083600160008673ffffffffffffffffffffffffffffffffffffffff1673ffffffffffffffffffffffffffffffffffffffff16815260200190815260200160002060000160006101000a81548173ffffffffffffffffffffffffffffffffffffffff021916908373ffffffffffffffffffffffffffffffffffffffff16021790555060018060008673ffffffffffffffffffffffffffffffffffffffff1673ffffffffffffffffffffffffffffffffffffffff16815260200190815260200160002060000160146101000a81548160ff0219169083151502179055507fb3eccf73f39b1c07947c780b2b39df2a1bb058b4037b0a42d0881ca1a028a132846040516104639190610a99565b60405180910390a150505050565b60003373ffffffffffffffffffffffffffffffffffffffff168273ffffffffffffffffffffffffffffffffffffffff16146104e1576040517f08c379a00000000000000000000000000000000000000000000000000000000081526004016104d890610b02565b60405180910390fd5b60011515600160003373ffffffffffffffffffffffffffffffffffffffff1673ffffffffffffffffffffffffffffffffffffffff16815260200190815260200160002060000160149054906101000a900460ff16151514610577576040517f08c379a000000000000000000000000000000000000000000000000000000000815260040161056e90610b62565b60405180910390fd5b60019050919050565b60016020528060005260406000206000915090508060000160009054906101000a900473ffffffffffffffffffffffffffffffffffffffff16908060000160149054906101000a900460ff16908060010180546105dc90610c86565b80601f016020809104026020016040519081016040528092919081815260200182805461060890610c86565b80156106555780601f1061062a57610100808354040283529160200191610655565b820191906000526020600020905b81548152906001019060200180831161063857829003601f168201915b50505050509080600201805461066a90610c86565b80601f016020809104026020016040519081016040528092919081815260200182805461069690610c86565b80156106e35780601f106106b8576101008083540402835291602001916106e3565b820191906000526020600020905b8154815290600101906020018083116106c657829003601f168201915b5050505050905084565b8280546106f990610c86565b90600052602060002090601f01602090048101928261071b5760008555610762565b82601f1061073457805160ff1916838001178555610762565b82800160010185558215610762579182015b82811115610761578251825591602001919060010190610746565b5b50905061076f9190610773565b5090565b5b8082111561078c576000816000905550600101610774565b5090565b60006107a361079e84610ba7565b610b82565b9050828152602081018484840111156107bb57600080fd5b6107c6848285610c44565b509392505050565b6000813590506107dd81610e4e565b92915050565b6000813590506107f281610e65565b92915050565b600082601f83011261080957600080fd5b8135610819848260208601610790565b91505092915050565b60006020828403121561083457600080fd5b6000610842848285016107ce565b91505092915050565b60006020828403121561085d57600080fd5b600061086b848285016107e3565b91505092915050565b60008060006060848603121561088957600080fd5b6000610897868287016107e3565b935050602084013567ffffffffffffffff8111156108b457600080fd5b6108c0868287016107f8565b925050604084013567ffffffffffffffff8111156108dd57600080fd5b6108e9868287016107f8565b9150509250925092565b6108fc81610c06565b82525050565b61090b81610bf4565b82525050565b61091a81610c18565b82525050565b600061092b82610bd8565b6109358185610be3565b9350610945818560208601610c53565b61094e81610d47565b840191505092915050565b6000610966601c83610be3565b915061097182610d58565b602082019050919050565b6000610989601983610be3565b915061099482610d81565b602082019050919050565b60006109ac601283610be3565b91506109b782610daa565b602082019050919050565b60006109cf601f83610be3565b91506109da82610dd3565b602082019050919050565b60006109f2601783610be3565b91506109fd82610dfc565b602082019050919050565b6000610a15601683610be3565b9150610a2082610e25565b602082019050919050565b6000602082019050610a406000830184610902565b92915050565b6000608082019050610a5b60008301876108f3565b610a686020830186610911565b8181036040830152610a7a8185610920565b90508181036060830152610a8e8184610920565b905095945050505050565b6000604082019050610aae60008301846108f3565b8181036020830152610abf816109e5565b905092915050565b6000602082019050610adc6000830184610911565b92915050565b60006020820190508181036000830152610afb81610959565b9050919050565b60006020820190508181036000830152610b1b8161097c565b9050919050565b60006020820190508181036000830152610b3b8161099f565b9050919050565b60006020820190508181036000830152610b5b816109c2565b9050919050565b60006020820190508181036000830152610b7b81610a08565b9050919050565b6000610b8c610b9d565b9050610b988282610cb8565b919050565b6000604051905090565b600067ffffffffffffffff821115610bc257610bc1610d18565b5b610bcb82610d47565b9050602081019050919050565b600081519050919050565b600082825260208201905092915050565b6000610bff82610c24565b9050919050565b6000610c1182610c24565b9050919050565b60008115159050919050565b600073ffffffffffffffffffffffffffffffffffffffff82169050919050565b82818337600083830152505050565b60005b83811015610c71578082015181840152602081019050610c56565b83811115610c80576000848401525b50505050565b60006002820490506001821680610c9e57607f821691505b60208210811415610cb257610cb1610ce9565b5b50919050565b610cc182610d47565b810181811067ffffffffffffffff82111715610ce057610cdf610d18565b5b80604052505050565b7f4e487b7100000000000000000000000000000000000000000000000000000000600052602260045260246000fd5b7f4e487b7100000000000000000000000000000000000000000000000000000000600052604160045260246000fd5b6000601f19601f8301169050919050565b7f43616e6e6f7420526567697374657220736f6d656f6e6520656c736500000000600082015250565b7f43616e6e6f74206c6f67696e20736f6d656f6e6520656c736500000000000000600082015250565b7f416c726561647920726567697374657265640000000000000000000000000000600082015250565b7f6f776e65722063616e6e6f74207265676973746572207468656d73656c662e00600082015250565b7f726567697374726174696f6e207375636365737366756c000000000000000000600082015250565b7f41646472657373206e6f74207265676973746572656400000000000000000000600082015250565b610e5781610bf4565b8114610e6257600080fd5b50565b610e6e81610c06565b8114610e7957600080fd5b5056fea26469706673582212203d553b337b63b6696e3e9d73af5498ca524afd3d7646ed4b1c90722982bacc9764736f6c63430008040033",
  "immutableReferences": {},
  "source": "// SPDX-License-Identifier: MIT\r\npragma solidity ^0.8;\r\n\r\ncontract Registration{\r\n    address private owner;\r\n    constructor(){\r\n        owner = msg.sender;\r\n    }\r\n    \r\n    struct user{\r\n        address payable user_addr;\r\n        bool isAuth;\r\n        string first_name;\r\n        string user_type;\r\n    }\r\n    \r\n    mapping(address => user) public User_Record;\r\n    \r\n    modifier checkAlreadyRegistered(address sender){\r\n        require(sender != owner,\"owner cannot register themself.\");\r\n        require(User_Record[sender].isAuth == false,\"Already registered\");\r\n        _;\r\n    }\r\n    \r\n    event Registered(address payable,string s);\r\n\r\n    function getOwner()view public returns(address){\r\n        return owner;\r\n    }\r\n    \r\n    function register(address payable sender , string memory f_name,string memory u_type)public checkAlreadyRegistered(msg.sender) {\r\n        require(sender == msg.sender,\"Cannot Register someone else\");\r\n        User_Record[sender].first_name = f_name;\r\n        User_Record[sender].user_type = u_type;\r\n        User_Record[sender].user_addr = sender;\r\n        User_Record[sender].isAuth = true;\r\n        emit Registered(sender,\"registration successful\");\r\n    }\r\n\r\n    function signin(address payable sender) public view returns(bool) {\r\n        require(sender == msg.sender,\"Cannot login someone else\");\r\n        require(User_Record[msg.sender].isAuth == true,\"Address not registered\");\r\n        return true;\r\n    }\r\n}",
  "sourcePath": "C:/Users/shreya/Documents/ds/contracts/Registration.sol",
  "compiler": {
    "name": "solc",
    "version": "0.8.4+commit.c7e474f2.Emscripten.clang"
  },
  "schemaVersion": "3.3.4",
  "updatedAt": "2021-05-16T09:33:53.503Z",
  "devdoc": {
    "kind": "dev",
    "methods": {},
    "version": 1
  },
  "userdoc": {
    "kind": "user",
    "methods": {},
    "version": 1
  }
}